{
  "address": "0xD0746516BE509b429bD0e4bc5E415499dD6ccf5A",
  "abi": [
    {
      "inputs": [
        {
          "internalType": "contract AddressRegistry",
          "name": "_prizePoolRegistry",
          "type": "address"
        },
        {
          "internalType": "uint256",
          "name": "_upkeepBatchSize",
          "type": "uint256"
        }
      ],
      "stateMutability": "nonpayable",
      "type": "constructor"
    },
    {
      "anonymous": false,
      "inputs": [
        {
          "indexed": true,
          "internalType": "address",
          "name": "previousOwner",
          "type": "address"
        },
        {
          "indexed": true,
          "internalType": "address",
          "name": "newOwner",
          "type": "address"
        }
      ],
      "name": "OwnershipTransferred",
      "type": "event"
    },
    {
      "anonymous": false,
      "inputs": [
        {
          "indexed": false,
          "internalType": "uint256",
          "name": "upkeepBatchSize",
          "type": "uint256"
        }
      ],
      "name": "UpkeepBatchSizeUpdated",
      "type": "event"
    },
    {
      "inputs": [
        {
          "internalType": "bytes",
          "name": "checkData",
          "type": "bytes"
        }
      ],
      "name": "checkUpkeep",
      "outputs": [
        {
          "internalType": "bool",
          "name": "upkeepNeeded",
          "type": "bool"
        },
        {
          "internalType": "bytes",
          "name": "performData",
          "type": "bytes"
        }
      ],
      "stateMutability": "view",
      "type": "function"
    },
    {
      "inputs": [],
      "name": "owner",
      "outputs": [
        {
          "internalType": "address",
          "name": "",
          "type": "address"
        }
      ],
      "stateMutability": "view",
      "type": "function"
    },
    {
      "inputs": [
        {
          "internalType": "bytes",
          "name": "performData",
          "type": "bytes"
        }
      ],
      "name": "performUpkeep",
      "outputs": [],
      "stateMutability": "nonpayable",
      "type": "function"
    },
    {
      "inputs": [],
      "name": "prizePoolRegistry",
      "outputs": [
        {
          "internalType": "contract AddressRegistry",
          "name": "",
          "type": "address"
        }
      ],
      "stateMutability": "view",
      "type": "function"
    },
    {
      "inputs": [],
      "name": "renounceOwnership",
      "outputs": [],
      "stateMutability": "nonpayable",
      "type": "function"
    },
    {
      "inputs": [
        {
          "internalType": "address",
          "name": "newOwner",
          "type": "address"
        }
      ],
      "name": "transferOwnership",
      "outputs": [],
      "stateMutability": "nonpayable",
      "type": "function"
    },
    {
      "inputs": [
        {
          "internalType": "uint256",
          "name": "_upkeepBatchSize",
          "type": "uint256"
        }
      ],
      "name": "updateUpkeepBatchSize",
      "outputs": [],
      "stateMutability": "nonpayable",
      "type": "function"
    },
    {
      "inputs": [],
      "name": "upkeepBatchSize",
      "outputs": [
        {
          "internalType": "uint256",
          "name": "",
          "type": "uint256"
        }
      ],
      "stateMutability": "view",
      "type": "function"
    }
  ],
  "transactionHash": "0xb3546b8be51320f1812962fb9249c3ce161948e5dddd2e0a7a8b25e86e8ba623",
  "args": [
    "0xF76f17682888a738a6DF40aa63ac2b4B1a380831",
    5
  ],
  "solcInputHash": "93a96abdcbcfbf4f225c455a317cfd43",
  "bytecode": "0x608060405234801561001057600080fd5b50604051610e0a380380610e0a83398101604081905261002f916100e6565b60006100396100e2565b600080546001600160a01b0319166001600160a01b0383169081178255604051929350917f8be0079c531659141344cd1fd0a4f28419497f9722a3daafe3b4186f6b6457e0908290a350600180546001600160a01b0319166001600160a01b03841617905560028190556040517fb722c0a05d55d91208263d973f28b92fc9599d46d7c490ff2efae89d8f3ddfe8906100d390839061011e565b60405180910390a15050610127565b3390565b600080604083850312156100f8578182fd5b82516001600160a01b038116811461010e578283fd5b6020939093015192949293505050565b90815260200190565b610cd4806101366000396000f3fe608060405234801561001057600080fd5b50600436106100885760003560e01c8063715018a61161005b578063715018a6146100f45780638da5cb5b146100fc578063ad06337f14610111578063f2fde38b1461011957610088565b80632dc418211461008d5780634585e33b146100ab5780635fdc3b58146100c05780636e04ff0d146100d3575b600080fd5b61009561012c565b6040516100a29190610c27565b60405180910390f35b6100be6100b9366004610b10565b610132565b005b6100be6100ce366004610b7d565b610351565b6100e66100e1366004610b10565b610405565b6040516100a2929190610bf1565b6100be610626565b6101046106e4565b6040516100a29190610bdd565b6101046106f3565b6100be6101273660046109fc565b610702565b60025481565b600154604080516351cfd60960e11b815290516000926001600160a01b03169163a39fac129160048083019286929190829003018186803b15801561017657600080fd5b505afa15801561018a573d6000803e3d6000fd5b505050506040513d6000823e601f3d908101601f191682016040526101b29190810190610a3b565b60025490915060005b6000821180156101cb5750825181105b1561034a5760008382815181106101de57fe5b60200260200101516001600160a01b03166398bf3eb66040518163ffffffff1660e01b815260040160206040518083038186803b15801561021e57600080fd5b505afa158015610232573d6000803e3d6000fd5b505050506040513d601f19601f820116820180604052508101906102569190610a1f565b905061026a816001600160a01b0316610816565b156102cf57806001600160a01b031663b9ee1e056040518163ffffffff1660e01b8152600401600060405180830381600087803b1580156102aa57600080fd5b505af11580156102be573d6000803e3d6000fd5b505060001990940193506103419050565b6102e1816001600160a01b03166108af565b1561034157806001600160a01b031663dfb2f13b6040518163ffffffff1660e01b8152600401600060405180830381600087803b15801561032157600080fd5b505af1158015610335573d6000803e3d6000fd5b50506000199094019350505b506001016101bb565b5050505050565b610359610900565b6001600160a01b031661036a6106e4565b6001600160a01b0316146103c5576040805162461bcd60e51b815260206004820181905260248201527f4f776e61626c653a2063616c6c6572206973206e6f7420746865206f776e6572604482015290519081900360640190fd5b60028190556040517fb722c0a05d55d91208263d973f28b92fc9599d46d7c490ff2efae89d8f3ddfe8906103fa908390610c27565b60405180910390a150565b600060606000600160009054906101000a90046001600160a01b03166001600160a01b031663a39fac126040518163ffffffff1660e01b815260040160006040518083038186803b15801561045957600080fd5b505afa15801561046d573d6000803e3d6000fd5b505050506040513d6000823e601f3d908101601f191682016040526104959190810190610a3b565b905060005b81518110156105575760008282815181106104b157fe5b60200260200101516001600160a01b03166398bf3eb66040518163ffffffff1660e01b815260040160206040518083038186803b1580156104f157600080fd5b505afa158015610505573d6000803e3d6000fd5b505050506040513d601f19601f820116820180604052508101906105299190610a1f565b905061053d816001600160a01b0316610816565b1561054e576001945050505061061f565b5060010161049a565b5060005b815181101561061857600082828151811061057257fe5b60200260200101516001600160a01b03166398bf3eb66040518163ffffffff1660e01b815260040160206040518083038186803b1580156105b257600080fd5b505afa1580156105c6573d6000803e3d6000fd5b505050506040513d601f19601f820116820180604052508101906105ea9190610a1f565b90506105fe816001600160a01b03166108af565b1561060f576001945050505061061f565b5060010161055b565b5060009250505b9250929050565b61062e610900565b6001600160a01b031661063f6106e4565b6001600160a01b03161461069a576040805162461bcd60e51b815260206004820181905260248201527f4f776e61626c653a2063616c6c6572206973206e6f7420746865206f776e6572604482015290519081900360640190fd5b600080546040516001600160a01b03909116907f8be0079c531659141344cd1fd0a4f28419497f9722a3daafe3b4186f6b6457e0908390a3600080546001600160a01b0319169055565b6000546001600160a01b031690565b6001546001600160a01b031681565b61070a610900565b6001600160a01b031661071b6106e4565b6001600160a01b031614610776576040805162461bcd60e51b815260206004820181905260248201527f4f776e61626c653a2063616c6c6572206973206e6f7420746865206f776e6572604482015290519081900360640190fd5b6001600160a01b0381166107bb5760405162461bcd60e51b8152600401808060200182810382526026815260200180610c796026913960400191505060405180910390fd5b600080546040516001600160a01b03808516939216917f8be0079c531659141344cd1fd0a4f28419497f9722a3daafe3b4186f6b6457e091a3600080546001600160a01b0319166001600160a01b0392909216919091179055565b6000610829826343b7ae3f60e11b610904565b156108a657816001600160a01b031663876f5c7e6040518163ffffffff1660e01b815260040160206040518083038186803b15801561086757600080fd5b505afa15801561087b573d6000803e3d6000fd5b505050506040513d601f19601f8201168201806040525081019061089f9190610af0565b90506108aa565b5060005b919050565b60006108c282636a74f10760e01b610904565b156108a657816001600160a01b0316636a74f1076040518163ffffffff1660e01b815260040160206040518083038186803b15801561086757600080fd5b3390565b60408051600481526024810182526020810180516001600160e01b03166001600160e01b03198516179052905160009190829081906001600160a01b0387169061753090610953908690610bc1565b6000604051808303818686fa925050503d806000811461098f576040519150601f19603f3d011682016040523d82523d6000602084013e610994565b606091505b50915091506020815110156109af57600093505050506109eb565b811580156109be575060008151115b156109e6578060405162461bcd60e51b81526004016109dd9190610c14565b60405180910390fd5b509150505b92915050565b80516108aa81610c60565b600060208284031215610a0d578081fd5b8135610a1881610c60565b9392505050565b600060208284031215610a30578081fd5b8151610a1881610c60565b60006020808385031215610a4d578182fd5b825167ffffffffffffffff80821115610a64578384fd5b818501915085601f830112610a77578384fd5b815181811115610a8357fe5b83810260405185828201018181108582111715610a9c57fe5b604052828152858101935084860182860187018a1015610aba578788fd5b8795505b83861015610ae357610acf816109f1565b855260019590950194938601938601610abe565b5098975050505050505050565b600060208284031215610b01578081fd5b81518015158114610a18578182fd5b60008060208385031215610b22578081fd5b823567ffffffffffffffff80821115610b39578283fd5b818501915085601f830112610b4c578283fd5b813581811115610b5a578384fd5b866020828501011115610b6b578384fd5b60209290920196919550909350505050565b600060208284031215610b8e578081fd5b5035919050565b60008151808452610bad816020860160208601610c30565b601f01601f19169290920160200192915050565b60008251610bd3818460208701610c30565b9190910192915050565b6001600160a01b0391909116815260200190565b6000831515825260406020830152610c0c6040830184610b95565b949350505050565b600060208252610a186020830184610b95565b90815260200190565b60005b83811015610c4b578181015183820152602001610c33565b83811115610c5a576000848401525b50505050565b6001600160a01b0381168114610c7557600080fd5b5056fe4f776e61626c653a206e6577206f776e657220697320746865207a65726f2061646472657373a2646970667358221220ae43108b6883eeeb66c10b91c3161b447d9a35ea31cefcc8b8bf8c9cecf3c80864736f6c63430007060033",
  "devdoc": {
    "kind": "dev",
    "methods": {
      "checkUpkeep(bytes)": {
        "params": {
          "checkData": "Not used in this implementation."
        },
        "returns": {
          "upkeepNeeded": "as true if performUpkeep() needs to be called, false otherwise. performData returned empty. "
        }
      },
      "owner()": {
        "details": "Returns the address of the current owner."
      },
      "performUpkeep(bytes)": {
        "params": {
          "performData": "Not used in this implementation."
        }
      },
      "renounceOwnership()": {
        "details": "Leaves the contract without owner. It will not be possible to call `onlyOwner` functions anymore. Can only be called by the current owner. NOTE: Renouncing ownership will leave the contract without an owner, thereby removing any functionality that is only available to the owner."
      },
      "transferOwnership(address)": {
        "details": "Transfers ownership of the contract to a new account (`newOwner`). Can only be called by the current owner."
      },
      "updateUpkeepBatchSize(uint256)": {
        "params": {
          "_upkeepBatchSize": "Amount upkeepBatchSize will be set to"
        }
      }
    },
    "stateVariables": {
      "upkeepBatchSize": {
        "details": "Set accordingly to prevent out-of-gas transactions during calls to performUpkeep"
      }
    },
    "version": 1
  },
  "userdoc": {
    "events": {
      "UpkeepBatchSizeUpdated(uint256)": {
        "notice": "Emitted when the upkeepBatchSize has been changed"
      }
    },
    "kind": "user",
    "methods": {
      "checkUpkeep(bytes)": {
        "notice": "Checks if PrizePools require upkeep. Call in a static manner every block by the Chainlink Upkeep network."
      },
      "performUpkeep(bytes)": {
        "notice": "Performs upkeep on the prize pools. "
      },
      "prizePoolRegistry()": {
        "notice": "Stores the maximum number of prize strategies to upkeep. "
      },
      "updateUpkeepBatchSize(uint256)": {
        "notice": "Updates the upkeepBatchSize which is set to prevent out of gas situations"
      },
      "upkeepBatchSize()": {
        "notice": "Stores the maximum number of prize strategies to upkeep. "
      }
    },
    "notice": "Contract implements Chainlink's Upkeep system interface, automating the upkeep of PrizePools in the associated registry. ",
    "version": 1
  },
  "storageLayout": {
    "storage": [
      {
        "astId": 7,
        "contract": "contracts/PrizeStrategyUpkeep.sol:PrizeStrategyUpkeep",
        "label": "_owner",
        "offset": 0,
        "slot": "0",
        "type": "t_address"
      },
      {
        "astId": 726,
        "contract": "contracts/PrizeStrategyUpkeep.sol:PrizeStrategyUpkeep",
        "label": "prizePoolRegistry",
        "offset": 0,
        "slot": "1",
        "type": "t_contract(AddressRegistry)321"
      },
      {
        "astId": 729,
        "contract": "contracts/PrizeStrategyUpkeep.sol:PrizeStrategyUpkeep",
        "label": "upkeepBatchSize",
        "offset": 0,
        "slot": "2",
        "type": "t_uint256"
      }
    ],
    "types": {
      "t_address": {
        "encoding": "inplace",
        "label": "address",
        "numberOfBytes": "20"
      },
      "t_contract(AddressRegistry)321": {
        "encoding": "inplace",
        "label": "contract AddressRegistry",
        "numberOfBytes": "20"
      },
      "t_uint256": {
        "encoding": "inplace",
        "label": "uint256",
        "numberOfBytes": "32"
      }
    }
  }
}