{
  "address": "0xaa55c780C88803Ad26e030eA00945D42a7434E68",
  "abi": [
    {
      "inputs": [
        {
          "internalType": "contract AddressRegistry",
          "name": "_prizePoolRegistry",
          "type": "address"
        },
        {
          "internalType": "uint256",
          "name": "_upkeepBatchSize",
          "type": "uint256"
        },
        {
          "internalType": "uint256",
          "name": "_upkeepMinimumBlockInterval",
          "type": "uint256"
        }
      ],
      "stateMutability": "nonpayable",
      "type": "constructor"
    },
    {
      "anonymous": false,
      "inputs": [
        {
          "indexed": true,
          "internalType": "address",
          "name": "previousOwner",
          "type": "address"
        },
        {
          "indexed": true,
          "internalType": "address",
          "name": "newOwner",
          "type": "address"
        }
      ],
      "name": "OwnershipTransferred",
      "type": "event"
    },
    {
      "anonymous": false,
      "inputs": [
        {
          "indexed": false,
          "internalType": "uint256",
          "name": "upkeepBatchSize",
          "type": "uint256"
        }
      ],
      "name": "UpkeepBatchSizeUpdated",
      "type": "event"
    },
    {
      "anonymous": false,
      "inputs": [
        {
          "indexed": false,
          "internalType": "uint256",
          "name": "upkeepMinimumBlockInterval",
          "type": "uint256"
        }
      ],
      "name": "UpkeepMinimumBlockIntervalUpdated",
      "type": "event"
    },
    {
      "anonymous": false,
      "inputs": [
        {
          "indexed": false,
          "internalType": "uint256",
          "name": "startAwardsPerformed",
          "type": "uint256"
        },
        {
          "indexed": false,
          "internalType": "uint256",
          "name": "completeAwardsPerformed",
          "type": "uint256"
        }
      ],
      "name": "UpkeepPerformed",
      "type": "event"
    },
    {
      "anonymous": false,
      "inputs": [
        {
          "indexed": false,
          "internalType": "contract AddressRegistry",
          "name": "prizePoolRegistry",
          "type": "address"
        }
      ],
      "name": "UpkeepPrizePoolRegistryUpdated",
      "type": "event"
    },
    {
      "inputs": [
        {
          "internalType": "bytes",
          "name": "checkData",
          "type": "bytes"
        }
      ],
      "name": "checkUpkeep",
      "outputs": [
        {
          "internalType": "bool",
          "name": "upkeepNeeded",
          "type": "bool"
        },
        {
          "internalType": "bytes",
          "name": "performData",
          "type": "bytes"
        }
      ],
      "stateMutability": "view",
      "type": "function"
    },
    {
      "inputs": [],
      "name": "owner",
      "outputs": [
        {
          "internalType": "address",
          "name": "",
          "type": "address"
        }
      ],
      "stateMutability": "view",
      "type": "function"
    },
    {
      "inputs": [
        {
          "internalType": "bytes",
          "name": "performData",
          "type": "bytes"
        }
      ],
      "name": "performUpkeep",
      "outputs": [],
      "stateMutability": "nonpayable",
      "type": "function"
    },
    {
      "inputs": [],
      "name": "prizePoolRegistry",
      "outputs": [
        {
          "internalType": "contract AddressRegistry",
          "name": "",
          "type": "address"
        }
      ],
      "stateMutability": "view",
      "type": "function"
    },
    {
      "inputs": [],
      "name": "renounceOwnership",
      "outputs": [],
      "stateMutability": "nonpayable",
      "type": "function"
    },
    {
      "inputs": [
        {
          "internalType": "address",
          "name": "newOwner",
          "type": "address"
        }
      ],
      "name": "transferOwnership",
      "outputs": [],
      "stateMutability": "nonpayable",
      "type": "function"
    },
    {
      "inputs": [
        {
          "internalType": "contract AddressRegistry",
          "name": "_prizePoolRegistry",
          "type": "address"
        }
      ],
      "name": "updatePrizePoolRegistry",
      "outputs": [],
      "stateMutability": "nonpayable",
      "type": "function"
    },
    {
      "inputs": [
        {
          "internalType": "uint256",
          "name": "_upkeepBatchSize",
          "type": "uint256"
        }
      ],
      "name": "updateUpkeepBatchSize",
      "outputs": [],
      "stateMutability": "nonpayable",
      "type": "function"
    },
    {
      "inputs": [
        {
          "internalType": "uint256",
          "name": "_upkeepMinimumBlockInterval",
          "type": "uint256"
        }
      ],
      "name": "updateUpkeepMinimumBlockInterval",
      "outputs": [],
      "stateMutability": "nonpayable",
      "type": "function"
    },
    {
      "inputs": [],
      "name": "upkeepBatchSize",
      "outputs": [
        {
          "internalType": "uint256",
          "name": "",
          "type": "uint256"
        }
      ],
      "stateMutability": "view",
      "type": "function"
    },
    {
      "inputs": [],
      "name": "upkeepLastUpkeepBlockNumber",
      "outputs": [
        {
          "internalType": "uint256",
          "name": "",
          "type": "uint256"
        }
      ],
      "stateMutability": "view",
      "type": "function"
    },
    {
      "inputs": [],
      "name": "upkeepMinimumBlockInterval",
      "outputs": [
        {
          "internalType": "uint256",
          "name": "",
          "type": "uint256"
        }
      ],
      "stateMutability": "view",
      "type": "function"
    }
  ],
  "transactionHash": "0xa3c5ec3a2d12c2774a46cd60375a48e35b94d59b8c3e7c88195f64814f70cc80",
  "args": [
    "0xF76f17682888a738a6DF40aa63ac2b4B1a380831",
    3,
    10
  ],
  "solcInputHash": "4d99ccacf7db9715d082cf53f38b8750",
  "bytecode": "0x608060405234801561001057600080fd5b5060405161113d38038061113d83398101604081905261002f9161015c565b6000610039610158565b600080546001600160a01b0319166001600160a01b0383169081178255604051929350917f8be0079c531659141344cd1fd0a4f28419497f9722a3daafe3b4186f6b6457e0908290a350600180546001600160a01b0319166001600160a01b0385161790556040517f3945779a0b94143e19ceb0254d7ff1fbe6c4265b6328031e7cc1274c2b8d77c7906100ce90859061019d565b60405180910390a160028290556040517fb722c0a05d55d91208263d973f28b92fc9599d46d7c490ff2efae89d8f3ddfe89061010b9084906101b1565b60405180910390a160048190556040517f7a5354403e343fa02d40d3906b696f894d8b73fb8a898b07d7414f29866ef5d3906101489083906101b1565b60405180910390a15050506101ba565b3390565b600080600060608486031215610170578283fd5b83516001600160a01b0381168114610186578384fd5b602085015160409095015190969495509392505050565b6001600160a01b0391909116815260200190565b90815260200190565b610f74806101c96000396000f3fe608060405234801561001057600080fd5b50600436106100b45760003560e01c8063715018a611610071578063715018a61461013b5780638da5cb5b14610143578063ad06337f14610158578063ba450a1a14610160578063f208517014610168578063f2fde38b1461017b576100b4565b80632dc41821146100b957806343d73f2d146100d75780634585e33b146100ec5780634fd47a76146100ff5780635fdc3b58146101075780636e04ff0d1461011a575b600080fd5b6100c161018e565b6040516100ce9190610e99565b60405180910390f35b6100ea6100e5366004610c11565b610194565b005b6100ea6100fa366004610d25565b61024c565b6100c161050d565b6100ea610115366004610d92565b610513565b61012d610128366004610d25565b6105aa565b6040516100ce929190610e06565b6100ea6107cb565b61014b610877565b6040516100ce9190610df2565b61014b610886565b6100c1610895565b6100ea610176366004610d92565b61089b565b6100ea610189366004610c11565b610932565b60025481565b61019c610a34565b6001600160a01b03166101ad610877565b6001600160a01b0316146101f6576040805162461bcd60e51b81526020600482018190526024820152600080516020610f1f833981519152604482015290519081900360640190fd5b600180546001600160a01b0319166001600160a01b0383161790556040517f3945779a0b94143e19ceb0254d7ff1fbe6c4265b6328031e7cc1274c2b8d77c790610241908390610df2565b60405180910390a150565b6003546004548101431161027b5760405162461bcd60e51b815260040161027290610e3c565b60405180910390fd5b600154604080516351cfd60960e11b815290516000926001600160a01b03169163a39fac129160048083019286929190829003018186803b1580156102bf57600080fd5b505afa1580156102d3573d6000803e3d6000fd5b505050506040513d6000823e601f3d908101601f191682016040526102fb9190810190610c50565b60025490915060008080805b6000851180156103175750855184105b156104a457600086858151811061032a57fe5b60200260200101516001600160a01b03166398bf3eb66040518163ffffffff1660e01b815260040160206040518083038186803b15801561036a57600080fd5b505afa15801561037e573d6000803e3d6000fd5b505050506040513d601f19601f820116820180604052508101906103a29190610c34565b90506103b6816001600160a01b0316610a38565b1561042057806001600160a01b031663b9ee1e056040518163ffffffff1660e01b8152600401600060405180830381600087803b1580156103f657600080fd5b505af115801561040a573d6000803e3d6000fd5b5050600019909701965050600190930192610498565b610432816001600160a01b0316610ad1565b1561049857806001600160a01b031663dfb2f13b6040518163ffffffff1660e01b8152600401600060405180830381600087803b15801561047257600080fd5b505af1158015610486573d6000803e3d6000fd5b50506000199097019650506001909201915b50600190930192610307565b60008311806104b35750600082115b156104bb5750435b8087146105025760038190556040517f9fbc2aeb5bf6200e5499d345acddf1dd462c37becb4673d661250b89ced7ff6a906104f99085908590610ea2565b60405180910390a15b505050505050505050565b60045481565b61051b610a34565b6001600160a01b031661052c610877565b6001600160a01b031614610575576040805162461bcd60e51b81526020600482018190526024820152600080516020610f1f833981519152604482015290519081900360640190fd5b60028190556040517fb722c0a05d55d91208263d973f28b92fc9599d46d7c490ff2efae89d8f3ddfe890610241908390610e99565b600060606000600160009054906101000a90046001600160a01b03166001600160a01b031663a39fac126040518163ffffffff1660e01b815260040160006040518083038186803b1580156105fe57600080fd5b505afa158015610612573d6000803e3d6000fd5b505050506040513d6000823e601f3d908101601f1916820160405261063a9190810190610c50565b905060005b81518110156106fc57600082828151811061065657fe5b60200260200101516001600160a01b03166398bf3eb66040518163ffffffff1660e01b815260040160206040518083038186803b15801561069657600080fd5b505afa1580156106aa573d6000803e3d6000fd5b505050506040513d601f19601f820116820180604052508101906106ce9190610c34565b90506106e2816001600160a01b0316610a38565b156106f357600194505050506107c4565b5060010161063f565b5060005b81518110156107bd57600082828151811061071757fe5b60200260200101516001600160a01b03166398bf3eb66040518163ffffffff1660e01b815260040160206040518083038186803b15801561075757600080fd5b505afa15801561076b573d6000803e3d6000fd5b505050506040513d601f19601f8201168201806040525081019061078f9190610c34565b90506107a3816001600160a01b0316610ad1565b156107b457600194505050506107c4565b50600101610700565b5060009250505b9250929050565b6107d3610a34565b6001600160a01b03166107e4610877565b6001600160a01b03161461082d576040805162461bcd60e51b81526020600482018190526024820152600080516020610f1f833981519152604482015290519081900360640190fd5b600080546040516001600160a01b03909116907f8be0079c531659141344cd1fd0a4f28419497f9722a3daafe3b4186f6b6457e0908390a3600080546001600160a01b0319169055565b6000546001600160a01b031690565b6001546001600160a01b031681565b60035481565b6108a3610a34565b6001600160a01b03166108b4610877565b6001600160a01b0316146108fd576040805162461bcd60e51b81526020600482018190526024820152600080516020610f1f833981519152604482015290519081900360640190fd5b60048190556040517f7a5354403e343fa02d40d3906b696f894d8b73fb8a898b07d7414f29866ef5d390610241908390610e99565b61093a610a34565b6001600160a01b031661094b610877565b6001600160a01b031614610994576040805162461bcd60e51b81526020600482018190526024820152600080516020610f1f833981519152604482015290519081900360640190fd5b6001600160a01b0381166109d95760405162461bcd60e51b8152600401808060200182810382526026815260200180610ef96026913960400191505060405180910390fd5b600080546040516001600160a01b03808516939216917f8be0079c531659141344cd1fd0a4f28419497f9722a3daafe3b4186f6b6457e091a3600080546001600160a01b0319166001600160a01b0392909216919091179055565b3390565b6000610a4b826343b7ae3f60e11b610b22565b15610ac857816001600160a01b031663876f5c7e6040518163ffffffff1660e01b815260040160206040518083038186803b158015610a8957600080fd5b505afa158015610a9d573d6000803e3d6000fd5b505050506040513d601f19601f82011682018060405250810190610ac19190610d05565b9050610acc565b5060005b919050565b6000610ae482636a74f10760e01b610b22565b15610ac857816001600160a01b0316636a74f1076040518163ffffffff1660e01b815260040160206040518083038186803b158015610a8957600080fd5b60408051600481526024810182526020810180516001600160e01b03166001600160e01b03198516179052905160009190829081906001600160a01b0387169061753090610b71908690610dd6565b6000604051808303818686fa925050503d8060008114610bad576040519150601f19603f3d011682016040523d82523d6000602084013e610bb2565b606091505b5091509150602081511015610bcd5760009350505050610c00565b81158015610bdc575060008151115b15610bfb578060405162461bcd60e51b81526004016102729190610e29565b509150505b92915050565b8051610acc81610ee0565b600060208284031215610c22578081fd5b8135610c2d81610ee0565b9392505050565b600060208284031215610c45578081fd5b8151610c2d81610ee0565b60006020808385031215610c62578182fd5b825167ffffffffffffffff80821115610c79578384fd5b818501915085601f830112610c8c578384fd5b815181811115610c9857fe5b83810260405185828201018181108582111715610cb157fe5b604052828152858101935084860182860187018a1015610ccf578788fd5b8795505b83861015610cf857610ce481610c06565b855260019590950194938601938601610cd3565b5098975050505050505050565b600060208284031215610d16578081fd5b81518015158114610c2d578182fd5b60008060208385031215610d37578081fd5b823567ffffffffffffffff80821115610d4e578283fd5b818501915085601f830112610d61578283fd5b813581811115610d6f578384fd5b866020828501011115610d80578384fd5b60209290920196919550909350505050565b600060208284031215610da3578081fd5b5035919050565b60008151808452610dc2816020860160208601610eb0565b601f01601f19169290920160200192915050565b60008251610de8818460208701610eb0565b9190910192915050565b6001600160a01b0391909116815260200190565b6000831515825260406020830152610e216040830184610daa565b949350505050565b600060208252610c2d6020830184610daa565b60208082526037908201527f5072697a65537472617465677955706b6565703a3a6d696e696d756d20626c6f60408201527f636b20696e74657276616c206e6f742072656163686564000000000000000000606082015260800190565b90815260200190565b918252602082015260400190565b60005b83811015610ecb578181015183820152602001610eb3565b83811115610eda576000848401525b50505050565b6001600160a01b0381168114610ef557600080fd5b5056fe4f776e61626c653a206e6577206f776e657220697320746865207a65726f20616464726573734f776e61626c653a2063616c6c6572206973206e6f7420746865206f776e6572a26469706673582212203c3bc5a14eef22b9e47120e14968b7423a8996ec8553bb4f7825e072047f0a9164736f6c63430007060033",
  "devdoc": {
    "kind": "dev",
    "methods": {
      "checkUpkeep(bytes)": {
        "params": {
          "checkData": "Not used in this implementation."
        },
        "returns": {
          "upkeepNeeded": "as true if performUpkeep() needs to be called, false otherwise. performData returned empty. "
        }
      },
      "owner()": {
        "details": "Returns the address of the current owner."
      },
      "performUpkeep(bytes)": {
        "params": {
          "performData": "Not used in this implementation."
        }
      },
      "renounceOwnership()": {
        "details": "Leaves the contract without owner. It will not be possible to call `onlyOwner` functions anymore. Can only be called by the current owner. NOTE: Renouncing ownership will leave the contract without an owner, thereby removing any functionality that is only available to the owner."
      },
      "transferOwnership(address)": {
        "details": "Transfers ownership of the contract to a new account (`newOwner`). Can only be called by the current owner."
      },
      "updatePrizePoolRegistry(address)": {
        "params": {
          "_prizePoolRegistry": "New registry address"
        }
      },
      "updateUpkeepBatchSize(uint256)": {
        "params": {
          "_upkeepBatchSize": "Amount upkeepBatchSize will be set to"
        }
      },
      "updateUpkeepMinimumBlockInterval(uint256)": {
        "params": {
          "_upkeepMinimumBlockInterval": "New upkeepMinimumBlockInterval"
        }
      }
    },
    "stateVariables": {
      "upkeepBatchSize": {
        "details": "Set accordingly to prevent out-of-gas transactions during calls to performUpkeep"
      }
    },
    "version": 1
  },
  "userdoc": {
    "events": {
      "UpkeepBatchSizeUpdated(uint256)": {
        "notice": "Emitted when the upkeepBatchSize has been changed"
      },
      "UpkeepMinimumBlockIntervalUpdated(uint256)": {
        "notice": "Emitted when the Upkeep Minimum Block interval is updated"
      },
      "UpkeepPerformed(uint256,uint256)": {
        "notice": "Emitted when the Upkeep has been performed"
      },
      "UpkeepPrizePoolRegistryUpdated(address)": {
        "notice": "Emitted when the prize pool registry has been changed"
      }
    },
    "kind": "user",
    "methods": {
      "checkUpkeep(bytes)": {
        "notice": "Checks if PrizePools require upkeep. Call in a static manner every block by the Chainlink Upkeep network."
      },
      "performUpkeep(bytes)": {
        "notice": "Performs upkeep on the prize pools. "
      },
      "prizePoolRegistry()": {
        "notice": "Stores the maximum number of prize strategies to upkeep. "
      },
      "updatePrizePoolRegistry(address)": {
        "notice": "Updates the prize pool registry"
      },
      "updateUpkeepBatchSize(uint256)": {
        "notice": "Updates the upkeepBatchSize which is set to prevent out of gas situations"
      },
      "updateUpkeepMinimumBlockInterval(uint256)": {
        "notice": "Updates the upkeep minimum interval blocks"
      },
      "upkeepBatchSize()": {
        "notice": "Stores the maximum number of prize strategies to upkeep. "
      },
      "upkeepLastUpkeepBlockNumber()": {
        "notice": "Stores the last upkeep block number"
      },
      "upkeepMinimumBlockInterval()": {
        "notice": "Stores the minimum block interval between permitted performUpkeep() calls"
      }
    },
    "notice": "Contract implements Chainlink's Upkeep system interface, automating the upkeep of PrizePools in the associated registry. ",
    "version": 1
  },
  "storageLayout": {
    "storage": [
      {
        "astId": 7,
        "contract": "contracts/PrizeStrategyUpkeep.sol:PrizeStrategyUpkeep",
        "label": "_owner",
        "offset": 0,
        "slot": "0",
        "type": "t_address"
      },
      {
        "astId": 726,
        "contract": "contracts/PrizeStrategyUpkeep.sol:PrizeStrategyUpkeep",
        "label": "prizePoolRegistry",
        "offset": 0,
        "slot": "1",
        "type": "t_contract(AddressRegistry)321"
      },
      {
        "astId": 729,
        "contract": "contracts/PrizeStrategyUpkeep.sol:PrizeStrategyUpkeep",
        "label": "upkeepBatchSize",
        "offset": 0,
        "slot": "2",
        "type": "t_uint256"
      },
      {
        "astId": 732,
        "contract": "contracts/PrizeStrategyUpkeep.sol:PrizeStrategyUpkeep",
        "label": "upkeepLastUpkeepBlockNumber",
        "offset": 0,
        "slot": "3",
        "type": "t_uint256"
      },
      {
        "astId": 735,
        "contract": "contracts/PrizeStrategyUpkeep.sol:PrizeStrategyUpkeep",
        "label": "upkeepMinimumBlockInterval",
        "offset": 0,
        "slot": "4",
        "type": "t_uint256"
      }
    ],
    "types": {
      "t_address": {
        "encoding": "inplace",
        "label": "address",
        "numberOfBytes": "20"
      },
      "t_contract(AddressRegistry)321": {
        "encoding": "inplace",
        "label": "contract AddressRegistry",
        "numberOfBytes": "20"
      },
      "t_uint256": {
        "encoding": "inplace",
        "label": "uint256",
        "numberOfBytes": "32"
      }
    }
  }
}