{
  "address": "0x037e907fFA9df4f8D13dA5B0BE5e9F317AD6e0Ef",
  "abi": [
    {
      "inputs": [
        {
          "internalType": "contract AddressRegistry",
          "name": "_prizePoolRegistry",
          "type": "address"
        },
        {
          "internalType": "uint256",
          "name": "_upkeepBatchSize",
          "type": "uint256"
        },
        {
          "internalType": "uint256",
          "name": "_upkeepMinimumBlockInterval",
          "type": "uint256"
        }
      ],
      "stateMutability": "nonpayable",
      "type": "constructor"
    },
    {
      "anonymous": false,
      "inputs": [
        {
          "indexed": true,
          "internalType": "address",
          "name": "previousOwner",
          "type": "address"
        },
        {
          "indexed": true,
          "internalType": "address",
          "name": "newOwner",
          "type": "address"
        }
      ],
      "name": "OwnershipTransferred",
      "type": "event"
    },
    {
      "anonymous": false,
      "inputs": [
        {
          "indexed": false,
          "internalType": "address",
          "name": "account",
          "type": "address"
        }
      ],
      "name": "Paused",
      "type": "event"
    },
    {
      "anonymous": false,
      "inputs": [
        {
          "indexed": false,
          "internalType": "address",
          "name": "account",
          "type": "address"
        }
      ],
      "name": "Unpaused",
      "type": "event"
    },
    {
      "anonymous": false,
      "inputs": [
        {
          "indexed": false,
          "internalType": "uint256",
          "name": "upkeepBatchSize",
          "type": "uint256"
        }
      ],
      "name": "UpkeepBatchSizeUpdated",
      "type": "event"
    },
    {
      "anonymous": false,
      "inputs": [
        {
          "indexed": false,
          "internalType": "uint256",
          "name": "upkeepMinimumBlockInterval",
          "type": "uint256"
        }
      ],
      "name": "UpkeepMinimumBlockIntervalUpdated",
      "type": "event"
    },
    {
      "anonymous": false,
      "inputs": [
        {
          "indexed": false,
          "internalType": "uint256",
          "name": "startAwardsPerformed",
          "type": "uint256"
        },
        {
          "indexed": false,
          "internalType": "uint256",
          "name": "completeAwardsPerformed",
          "type": "uint256"
        }
      ],
      "name": "UpkeepPerformed",
      "type": "event"
    },
    {
      "anonymous": false,
      "inputs": [
        {
          "indexed": false,
          "internalType": "contract AddressRegistry",
          "name": "prizePoolRegistry",
          "type": "address"
        }
      ],
      "name": "UpkeepPrizePoolRegistryUpdated",
      "type": "event"
    },
    {
      "inputs": [
        {
          "internalType": "bytes",
          "name": "checkData",
          "type": "bytes"
        }
      ],
      "name": "checkUpkeep",
      "outputs": [
        {
          "internalType": "bool",
          "name": "upkeepNeeded",
          "type": "bool"
        },
        {
          "internalType": "bytes",
          "name": "performData",
          "type": "bytes"
        }
      ],
      "stateMutability": "view",
      "type": "function"
    },
    {
      "inputs": [],
      "name": "owner",
      "outputs": [
        {
          "internalType": "address",
          "name": "",
          "type": "address"
        }
      ],
      "stateMutability": "view",
      "type": "function"
    },
    {
      "inputs": [],
      "name": "pause",
      "outputs": [],
      "stateMutability": "nonpayable",
      "type": "function"
    },
    {
      "inputs": [],
      "name": "paused",
      "outputs": [
        {
          "internalType": "bool",
          "name": "",
          "type": "bool"
        }
      ],
      "stateMutability": "view",
      "type": "function"
    },
    {
      "inputs": [
        {
          "internalType": "bytes",
          "name": "performData",
          "type": "bytes"
        }
      ],
      "name": "performUpkeep",
      "outputs": [],
      "stateMutability": "nonpayable",
      "type": "function"
    },
    {
      "inputs": [],
      "name": "prizePoolRegistry",
      "outputs": [
        {
          "internalType": "contract AddressRegistry",
          "name": "",
          "type": "address"
        }
      ],
      "stateMutability": "view",
      "type": "function"
    },
    {
      "inputs": [],
      "name": "renounceOwnership",
      "outputs": [],
      "stateMutability": "nonpayable",
      "type": "function"
    },
    {
      "inputs": [
        {
          "internalType": "address",
          "name": "newOwner",
          "type": "address"
        }
      ],
      "name": "transferOwnership",
      "outputs": [],
      "stateMutability": "nonpayable",
      "type": "function"
    },
    {
      "inputs": [],
      "name": "unpause",
      "outputs": [],
      "stateMutability": "nonpayable",
      "type": "function"
    },
    {
      "inputs": [
        {
          "internalType": "contract AddressRegistry",
          "name": "_prizePoolRegistry",
          "type": "address"
        }
      ],
      "name": "updatePrizePoolRegistry",
      "outputs": [],
      "stateMutability": "nonpayable",
      "type": "function"
    },
    {
      "inputs": [
        {
          "internalType": "uint256",
          "name": "_upkeepBatchSize",
          "type": "uint256"
        }
      ],
      "name": "updateUpkeepBatchSize",
      "outputs": [],
      "stateMutability": "nonpayable",
      "type": "function"
    },
    {
      "inputs": [
        {
          "internalType": "uint256",
          "name": "_upkeepMinimumBlockInterval",
          "type": "uint256"
        }
      ],
      "name": "updateUpkeepMinimumBlockInterval",
      "outputs": [],
      "stateMutability": "nonpayable",
      "type": "function"
    },
    {
      "inputs": [],
      "name": "upkeepBatchSize",
      "outputs": [
        {
          "internalType": "uint256",
          "name": "",
          "type": "uint256"
        }
      ],
      "stateMutability": "view",
      "type": "function"
    },
    {
      "inputs": [],
      "name": "upkeepLastUpkeepBlockNumber",
      "outputs": [
        {
          "internalType": "uint256",
          "name": "",
          "type": "uint256"
        }
      ],
      "stateMutability": "view",
      "type": "function"
    },
    {
      "inputs": [],
      "name": "upkeepMinimumBlockInterval",
      "outputs": [
        {
          "internalType": "uint256",
          "name": "",
          "type": "uint256"
        }
      ],
      "stateMutability": "view",
      "type": "function"
    }
  ],
  "transactionHash": "0x7f054ecd405bfcbae2b31c5d975173dfeb55becec7a57e5bd29e0801d5934c1c",
  "args": [
    "0x34733851E2047F8d0e1aa91124A6f9EaDc54D253",
    2,
    15
  ],
  "solcInputHash": "6c98dadaa93043e4ae4be9bc5181f214",
  "bytecode": "0x60806040523480156200001157600080fd5b506040516200143638038062001436833981016040819052620000349162000177565b60006200004062000173565b600080546001600160a01b0319166001600160a01b0383169081178255604051929350917f8be0079c531659141344cd1fd0a4f28419497f9722a3daafe3b4186f6b6457e0908290a3506000805460ff60a01b19169055600180546001600160a01b0319166001600160a01b0385161790556040517f3945779a0b94143e19ceb0254d7ff1fbe6c4265b6328031e7cc1274c2b8d77c790620000e4908590620001ba565b60405180910390a160028290556040517fb722c0a05d55d91208263d973f28b92fc9599d46d7c490ff2efae89d8f3ddfe89062000123908490620001ce565b60405180910390a160048190556040517f7a5354403e343fa02d40d3906b696f894d8b73fb8a898b07d7414f29866ef5d39062000162908390620001ce565b60405180910390a1505050620001d7565b3390565b6000806000606084860312156200018c578283fd5b83516001600160a01b0381168114620001a3578384fd5b602085015160409095015190969495509392505050565b6001600160a01b0391909116815260200190565b90815260200190565b61124f80620001e76000396000f3fe608060405234801561001057600080fd5b50600436106100f55760003560e01c80636e04ff0d11610097578063ad06337f11610066578063ad06337f146101be578063ba450a1a146101c6578063f2085170146101ce578063f2fde38b146101e1576100f5565b80636e04ff0d14610178578063715018a6146101995780638456cb59146101a15780638da5cb5b146101a9576100f5565b80634585e33b116100d35780634585e33b146101355780634fd47a76146101485780635c975abb146101505780635fdc3b5814610165576100f5565b80632dc41821146100fa5780633f4ba83a1461011857806343d73f2d14610122575b600080fd5b6101026101f4565b60405161010f9190611174565b60405180910390f35b6101206101fa565b005b610120610130366004610ee1565b610266565b610120610143366004610ff5565b61031e565b61010261062c565b610158610632565b60405161010f91906110d6565b610120610173366004611062565b610642565b61018b610186366004610ff5565b6106d9565b60405161010f9291906110e1565b610120610905565b6101206109b1565b6101b1610a1b565b60405161010f91906110c2565b6101b1610a2a565b610102610a39565b6101206101dc366004611062565b610a3f565b6101206101ef366004610ee1565b610ad6565b60025481565b610202610bd8565b6001600160a01b0316610213610a1b565b6001600160a01b03161461025c576040805162461bcd60e51b815260206004820181905260248201526000805160206111fa833981519152604482015290519081900360640190fd5b610264610bdc565b565b61026e610bd8565b6001600160a01b031661027f610a1b565b6001600160a01b0316146102c8576040805162461bcd60e51b815260206004820181905260248201526000805160206111fa833981519152604482015290519081900360640190fd5b600180546001600160a01b0319166001600160a01b0383161790556040517f3945779a0b94143e19ceb0254d7ff1fbe6c4265b6328031e7cc1274c2b8d77c7906103139083906110c2565b60405180910390a150565b610326610632565b1561036b576040805162461bcd60e51b815260206004820152601060248201526f14185d5cd8589b194e881c185d5cd95960821b604482015290519081900360640190fd5b6003546004548101431161039a5760405162461bcd60e51b815260040161039190611117565b60405180910390fd5b600154604080516351cfd60960e11b815290516000926001600160a01b03169163a39fac129160048083019286929190829003018186803b1580156103de57600080fd5b505afa1580156103f2573d6000803e3d6000fd5b505050506040513d6000823e601f3d908101601f1916820160405261041a9190810190610f20565b60025490915060008080805b6000851180156104365750855184105b156105c357600086858151811061044957fe5b60200260200101516001600160a01b03166398bf3eb66040518163ffffffff1660e01b815260040160206040518083038186803b15801561048957600080fd5b505afa15801561049d573d6000803e3d6000fd5b505050506040513d601f19601f820116820180604052508101906104c19190610f04565b90506104d5816001600160a01b0316610c7f565b1561053f57806001600160a01b031663b9ee1e056040518163ffffffff1660e01b8152600401600060405180830381600087803b15801561051557600080fd5b505af1158015610529573d6000803e3d6000fd5b50506000199097019650506001909301926105b7565b610551816001600160a01b0316610d18565b156105b757806001600160a01b031663dfb2f13b6040518163ffffffff1660e01b8152600401600060405180830381600087803b15801561059157600080fd5b505af11580156105a5573d6000803e3d6000fd5b50506000199097019650506001909201915b50600190930192610426565b60008311806105d25750600082115b156105da5750435b8087146106215760038190556040517f9fbc2aeb5bf6200e5499d345acddf1dd462c37becb4673d661250b89ced7ff6a90610618908590859061117d565b60405180910390a15b505050505050505050565b60045481565b600054600160a01b900460ff1690565b61064a610bd8565b6001600160a01b031661065b610a1b565b6001600160a01b0316146106a4576040805162461bcd60e51b815260206004820181905260248201526000805160206111fa833981519152604482015290519081900360640190fd5b60028190556040517fb722c0a05d55d91208263d973f28b92fc9599d46d7c490ff2efae89d8f3ddfe890610313908390611174565b60006060600454600354014310156106f457600091506108fe565b600154604080516351cfd60960e11b815290516000926001600160a01b03169163a39fac129160048083019286929190829003018186803b15801561073857600080fd5b505afa15801561074c573d6000803e3d6000fd5b505050506040513d6000823e601f3d908101601f191682016040526107749190810190610f20565b905060005b815181101561083657600082828151811061079057fe5b60200260200101516001600160a01b03166398bf3eb66040518163ffffffff1660e01b815260040160206040518083038186803b1580156107d057600080fd5b505afa1580156107e4573d6000803e3d6000fd5b505050506040513d601f19601f820116820180604052508101906108089190610f04565b905061081c816001600160a01b0316610c7f565b1561082d57600194505050506108fe565b50600101610779565b5060005b81518110156108f757600082828151811061085157fe5b60200260200101516001600160a01b03166398bf3eb66040518163ffffffff1660e01b815260040160206040518083038186803b15801561089157600080fd5b505afa1580156108a5573d6000803e3d6000fd5b505050506040513d601f19601f820116820180604052508101906108c99190610f04565b90506108dd816001600160a01b0316610d18565b156108ee57600194505050506108fe565b5060010161083a565b5060009250505b9250929050565b61090d610bd8565b6001600160a01b031661091e610a1b565b6001600160a01b031614610967576040805162461bcd60e51b815260206004820181905260248201526000805160206111fa833981519152604482015290519081900360640190fd5b600080546040516001600160a01b03909116907f8be0079c531659141344cd1fd0a4f28419497f9722a3daafe3b4186f6b6457e0908390a3600080546001600160a01b0319169055565b6109b9610bd8565b6001600160a01b03166109ca610a1b565b6001600160a01b031614610a13576040805162461bcd60e51b815260206004820181905260248201526000805160206111fa833981519152604482015290519081900360640190fd5b610264610d69565b6000546001600160a01b031690565b6001546001600160a01b031681565b60035481565b610a47610bd8565b6001600160a01b0316610a58610a1b565b6001600160a01b031614610aa1576040805162461bcd60e51b815260206004820181905260248201526000805160206111fa833981519152604482015290519081900360640190fd5b60048190556040517f7a5354403e343fa02d40d3906b696f894d8b73fb8a898b07d7414f29866ef5d390610313908390611174565b610ade610bd8565b6001600160a01b0316610aef610a1b565b6001600160a01b031614610b38576040805162461bcd60e51b815260206004820181905260248201526000805160206111fa833981519152604482015290519081900360640190fd5b6001600160a01b038116610b7d5760405162461bcd60e51b81526004018080602001828103825260268152602001806111d46026913960400191505060405180910390fd5b600080546040516001600160a01b03808516939216917f8be0079c531659141344cd1fd0a4f28419497f9722a3daafe3b4186f6b6457e091a3600080546001600160a01b0319166001600160a01b0392909216919091179055565b3390565b610be4610632565b610c2c576040805162461bcd60e51b815260206004820152601460248201527314185d5cd8589b194e881b9bdd081c185d5cd95960621b604482015290519081900360640190fd5b6000805460ff60a01b191690557f5db9ee0a495bf2e6ff9c91a7834c1ba4fdd244a5e8aa4e537bd38aeae4b073aa610c62610bd8565b604080516001600160a01b039092168252519081900360200190a1565b6000610c92826343b7ae3f60e11b610df2565b15610d0f57816001600160a01b031663876f5c7e6040518163ffffffff1660e01b815260040160206040518083038186803b158015610cd057600080fd5b505afa158015610ce4573d6000803e3d6000fd5b505050506040513d601f19601f82011682018060405250810190610d089190610fd5565b9050610d13565b5060005b919050565b6000610d2b82636a74f10760e01b610df2565b15610d0f57816001600160a01b0316636a74f1076040518163ffffffff1660e01b815260040160206040518083038186803b158015610cd057600080fd5b610d71610632565b15610db6576040805162461bcd60e51b815260206004820152601060248201526f14185d5cd8589b194e881c185d5cd95960821b604482015290519081900360640190fd5b6000805460ff60a01b1916600160a01b1790557f62e78cea01bee320cd4e420270b5ea74000d11b0c9f74754ebdbfc544b05a258610c62610bd8565b60408051600481526024810182526020810180516001600160e01b03166001600160e01b03198516179052905160009190829081906001600160a01b0387169061753090610e419086906110a6565b6000604051808303818686fa925050503d8060008114610e7d576040519150601f19603f3d011682016040523d82523d6000602084013e610e82565b606091505b5091509150602081511015610e9d5760009350505050610ed0565b81158015610eac575060008151115b15610ecb578060405162461bcd60e51b81526004016103919190611104565b509150505b92915050565b8051610d13816111bb565b600060208284031215610ef2578081fd5b8135610efd816111bb565b9392505050565b600060208284031215610f15578081fd5b8151610efd816111bb565b60006020808385031215610f32578182fd5b825167ffffffffffffffff80821115610f49578384fd5b818501915085601f830112610f5c578384fd5b815181811115610f6857fe5b83810260405185828201018181108582111715610f8157fe5b604052828152858101935084860182860187018a1015610f9f578788fd5b8795505b83861015610fc857610fb481610ed6565b855260019590950194938601938601610fa3565b5098975050505050505050565b600060208284031215610fe6578081fd5b81518015158114610efd578182fd5b60008060208385031215611007578081fd5b823567ffffffffffffffff8082111561101e578283fd5b818501915085601f830112611031578283fd5b81358181111561103f578384fd5b866020828501011115611050578384fd5b60209290920196919550909350505050565b600060208284031215611073578081fd5b5035919050565b6000815180845261109281602086016020860161118b565b601f01601f19169290920160200192915050565b600082516110b881846020870161118b565b9190910192915050565b6001600160a01b0391909116815260200190565b901515815260200190565b60008315158252604060208301526110fc604083018461107a565b949350505050565b600060208252610efd602083018461107a565b60208082526037908201527f5072697a65537472617465677955706b6565703a3a6d696e696d756d20626c6f60408201527f636b20696e74657276616c206e6f742072656163686564000000000000000000606082015260800190565b90815260200190565b918252602082015260400190565b60005b838110156111a657818101518382015260200161118e565b838111156111b5576000848401525b50505050565b6001600160a01b03811681146111d057600080fd5b5056fe4f776e61626c653a206e6577206f776e657220697320746865207a65726f20616464726573734f776e61626c653a2063616c6c6572206973206e6f7420746865206f776e6572a264697066735822122058c3c8e025b5084c274ca3a352fc736928ba1fedccd5d78be622b9084acd08c664736f6c63430007060033",
  "devdoc": {
    "kind": "dev",
    "methods": {
      "checkUpkeep(bytes)": {
        "params": {
          "checkData": "Not used in this implementation."
        },
        "returns": {
          "upkeepNeeded": "as true if performUpkeep() needs to be called, false otherwise. performData returned empty. "
        }
      },
      "owner()": {
        "details": "Returns the address of the current owner."
      },
      "paused()": {
        "details": "Returns true if the contract is paused, and false otherwise."
      },
      "performUpkeep(bytes)": {
        "params": {
          "performData": "Not used in this implementation."
        }
      },
      "renounceOwnership()": {
        "details": "Leaves the contract without owner. It will not be possible to call `onlyOwner` functions anymore. Can only be called by the current owner. NOTE: Renouncing ownership will leave the contract without an owner, thereby removing any functionality that is only available to the owner."
      },
      "transferOwnership(address)": {
        "details": "Transfers ownership of the contract to a new account (`newOwner`). Can only be called by the current owner."
      },
      "updatePrizePoolRegistry(address)": {
        "params": {
          "_prizePoolRegistry": "New registry address"
        }
      },
      "updateUpkeepBatchSize(uint256)": {
        "params": {
          "_upkeepBatchSize": "Amount upkeepBatchSize will be set to"
        }
      },
      "updateUpkeepMinimumBlockInterval(uint256)": {
        "params": {
          "_upkeepMinimumBlockInterval": "New upkeepMinimumBlockInterval"
        }
      }
    },
    "stateVariables": {
      "upkeepBatchSize": {
        "details": "Set accordingly to prevent out-of-gas transactions during calls to performUpkeep"
      }
    },
    "version": 1
  },
  "userdoc": {
    "events": {
      "UpkeepBatchSizeUpdated(uint256)": {
        "notice": "Emitted when the upkeepBatchSize has been changed"
      },
      "UpkeepMinimumBlockIntervalUpdated(uint256)": {
        "notice": "Emitted when the Upkeep Minimum Block interval is updated"
      },
      "UpkeepPerformed(uint256,uint256)": {
        "notice": "Emitted when the Upkeep has been performed"
      },
      "UpkeepPrizePoolRegistryUpdated(address)": {
        "notice": "Emitted when the prize pool registry has been changed"
      }
    },
    "kind": "user",
    "methods": {
      "checkUpkeep(bytes)": {
        "notice": "Checks if PrizePools require upkeep. Call in a static manner every block by the Chainlink Upkeep network."
      },
      "pause()": {
        "notice": "Pauses the contract. Only callable by owner."
      },
      "performUpkeep(bytes)": {
        "notice": "Performs upkeep on the prize pools. "
      },
      "prizePoolRegistry()": {
        "notice": "Stores the maximum number of prize strategies to upkeep. "
      },
      "unpause()": {
        "notice": "Unpauses the contract. Only callable by owner."
      },
      "updatePrizePoolRegistry(address)": {
        "notice": "Updates the prize pool registry"
      },
      "updateUpkeepBatchSize(uint256)": {
        "notice": "Updates the upkeepBatchSize which is set to prevent out of gas situations"
      },
      "updateUpkeepMinimumBlockInterval(uint256)": {
        "notice": "Updates the upkeep minimum interval blocks"
      },
      "upkeepBatchSize()": {
        "notice": "Stores the maximum number of prize strategies to upkeep. "
      },
      "upkeepLastUpkeepBlockNumber()": {
        "notice": "Stores the last upkeep block number"
      },
      "upkeepMinimumBlockInterval()": {
        "notice": "Stores the minimum block interval between permitted performUpkeep() calls"
      }
    },
    "notice": "Contract implements Chainlink's Upkeep system interface, automating the upkeep of PrizePools in the associated registry. ",
    "version": 1
  },
  "storageLayout": {
    "storage": [
      {
        "astId": 7,
        "contract": "contracts/PrizeStrategyUpkeep.sol:PrizeStrategyUpkeep",
        "label": "_owner",
        "offset": 0,
        "slot": "0",
        "type": "t_address"
      },
      {
        "astId": 150,
        "contract": "contracts/PrizeStrategyUpkeep.sol:PrizeStrategyUpkeep",
        "label": "_paused",
        "offset": 20,
        "slot": "0",
        "type": "t_bool"
      },
      {
        "astId": 821,
        "contract": "contracts/PrizeStrategyUpkeep.sol:PrizeStrategyUpkeep",
        "label": "prizePoolRegistry",
        "offset": 0,
        "slot": "1",
        "type": "t_contract(AddressRegistry)413"
      },
      {
        "astId": 824,
        "contract": "contracts/PrizeStrategyUpkeep.sol:PrizeStrategyUpkeep",
        "label": "upkeepBatchSize",
        "offset": 0,
        "slot": "2",
        "type": "t_uint256"
      },
      {
        "astId": 827,
        "contract": "contracts/PrizeStrategyUpkeep.sol:PrizeStrategyUpkeep",
        "label": "upkeepLastUpkeepBlockNumber",
        "offset": 0,
        "slot": "3",
        "type": "t_uint256"
      },
      {
        "astId": 830,
        "contract": "contracts/PrizeStrategyUpkeep.sol:PrizeStrategyUpkeep",
        "label": "upkeepMinimumBlockInterval",
        "offset": 0,
        "slot": "4",
        "type": "t_uint256"
      }
    ],
    "types": {
      "t_address": {
        "encoding": "inplace",
        "label": "address",
        "numberOfBytes": "20"
      },
      "t_bool": {
        "encoding": "inplace",
        "label": "bool",
        "numberOfBytes": "1"
      },
      "t_contract(AddressRegistry)413": {
        "encoding": "inplace",
        "label": "contract AddressRegistry",
        "numberOfBytes": "20"
      },
      "t_uint256": {
        "encoding": "inplace",
        "label": "uint256",
        "numberOfBytes": "32"
      }
    }
  }
}