{
  "address": "0x4c1B59c375E1B4A5d7E968f98A580D36fFBb6A7C",
  "abi": [
    {
      "inputs": [
        {
          "internalType": "contract AddressRegistry",
          "name": "_prizePoolRegistry",
          "type": "address"
        },
        {
          "internalType": "uint256",
          "name": "_upkeepBatchSize",
          "type": "uint256"
        }
      ],
      "stateMutability": "nonpayable",
      "type": "constructor"
    },
    {
      "anonymous": false,
      "inputs": [
        {
          "indexed": true,
          "internalType": "address",
          "name": "previousOwner",
          "type": "address"
        },
        {
          "indexed": true,
          "internalType": "address",
          "name": "newOwner",
          "type": "address"
        }
      ],
      "name": "OwnershipTransferred",
      "type": "event"
    },
    {
      "anonymous": false,
      "inputs": [
        {
          "indexed": false,
          "internalType": "uint256",
          "name": "upkeepBatchSize",
          "type": "uint256"
        }
      ],
      "name": "UpkeepBatchSizeUpdated",
      "type": "event"
    },
    {
      "anonymous": false,
      "inputs": [
        {
          "indexed": false,
          "internalType": "contract AddressRegistry",
          "name": "prizePoolRegistry",
          "type": "address"
        }
      ],
      "name": "UpkeepPrizePoolRegistryUpdated",
      "type": "event"
    },
    {
      "inputs": [
        {
          "internalType": "bytes",
          "name": "checkData",
          "type": "bytes"
        }
      ],
      "name": "checkUpkeep",
      "outputs": [
        {
          "internalType": "bool",
          "name": "upkeepNeeded",
          "type": "bool"
        },
        {
          "internalType": "bytes",
          "name": "performData",
          "type": "bytes"
        }
      ],
      "stateMutability": "view",
      "type": "function"
    },
    {
      "inputs": [],
      "name": "owner",
      "outputs": [
        {
          "internalType": "address",
          "name": "",
          "type": "address"
        }
      ],
      "stateMutability": "view",
      "type": "function"
    },
    {
      "inputs": [
        {
          "internalType": "bytes",
          "name": "performData",
          "type": "bytes"
        }
      ],
      "name": "performUpkeep",
      "outputs": [],
      "stateMutability": "nonpayable",
      "type": "function"
    },
    {
      "inputs": [],
      "name": "prizePoolRegistry",
      "outputs": [
        {
          "internalType": "contract AddressRegistry",
          "name": "",
          "type": "address"
        }
      ],
      "stateMutability": "view",
      "type": "function"
    },
    {
      "inputs": [],
      "name": "renounceOwnership",
      "outputs": [],
      "stateMutability": "nonpayable",
      "type": "function"
    },
    {
      "inputs": [
        {
          "internalType": "address",
          "name": "newOwner",
          "type": "address"
        }
      ],
      "name": "transferOwnership",
      "outputs": [],
      "stateMutability": "nonpayable",
      "type": "function"
    },
    {
      "inputs": [
        {
          "internalType": "contract AddressRegistry",
          "name": "_prizePoolRegistry",
          "type": "address"
        }
      ],
      "name": "updatePrizePoolRegistry",
      "outputs": [],
      "stateMutability": "nonpayable",
      "type": "function"
    },
    {
      "inputs": [
        {
          "internalType": "uint256",
          "name": "_upkeepBatchSize",
          "type": "uint256"
        }
      ],
      "name": "updateUpkeepBatchSize",
      "outputs": [],
      "stateMutability": "nonpayable",
      "type": "function"
    },
    {
      "inputs": [],
      "name": "upkeepBatchSize",
      "outputs": [
        {
          "internalType": "uint256",
          "name": "",
          "type": "uint256"
        }
      ],
      "stateMutability": "view",
      "type": "function"
    }
  ],
  "transactionHash": "0x41b238565f769e34799054f2838c6744177a96da1348a7a29209775eac43ea5f",
  "args": [
    "0x34733851E2047F8d0e1aa91124A6f9EaDc54D253",
    3
  ],
  "solcInputHash": "86dcf45483c9d653c55f51feb73aa1ee",
  "bytecode": "0x608060405234801561001057600080fd5b50604051610f0b380380610f0b83398101604081905261002f9161011e565b600061003961011a565b600080546001600160a01b0319166001600160a01b0383169081178255604051929350917f8be0079c531659141344cd1fd0a4f28419497f9722a3daafe3b4186f6b6457e0908290a350600180546001600160a01b0319166001600160a01b0384161790556040517f3945779a0b94143e19ceb0254d7ff1fbe6c4265b6328031e7cc1274c2b8d77c7906100ce908490610156565b60405180910390a160028190556040517fb722c0a05d55d91208263d973f28b92fc9599d46d7c490ff2efae89d8f3ddfe89061010b90839061016a565b60405180910390a15050610173565b3390565b60008060408385031215610130578182fd5b82516001600160a01b0381168114610146578283fd5b6020939093015192949293505050565b6001600160a01b0391909116815260200190565b90815260200190565b610d89806101826000396000f3fe608060405234801561001057600080fd5b50600436106100935760003560e01c80636e04ff0d116100665780636e04ff0d146100f1578063715018a6146101125780638da5cb5b1461011a578063ad06337f1461012f578063f2fde38b1461013757610093565b80632dc418211461009857806343d73f2d146100b65780634585e33b146100cb5780635fdc3b58146100de575b600080fd5b6100a061014a565b6040516100ad9190610cbc565b60405180910390f35b6100c96100c4366004610a91565b610150565b005b6100c96100d9366004610ba5565b610208565b6100c96100ec366004610c12565b610427565b6101046100ff366004610ba5565b6104be565b6040516100ad929190610c86565b6100c96106df565b61012261078b565b6040516100ad9190610c72565b61012261079a565b6100c9610145366004610a91565b6107a9565b60025481565b6101586108ab565b6001600160a01b031661016961078b565b6001600160a01b0316146101b2576040805162461bcd60e51b81526020600482018190526024820152600080516020610d34833981519152604482015290519081900360640190fd5b600180546001600160a01b0319166001600160a01b0383161790556040517f3945779a0b94143e19ceb0254d7ff1fbe6c4265b6328031e7cc1274c2b8d77c7906101fd908390610c72565b60405180910390a150565b600154604080516351cfd60960e11b815290516000926001600160a01b03169163a39fac129160048083019286929190829003018186803b15801561024c57600080fd5b505afa158015610260573d6000803e3d6000fd5b505050506040513d6000823e601f3d908101601f191682016040526102889190810190610ad0565b60025490915060005b6000821180156102a15750825181105b156104205760008382815181106102b457fe5b60200260200101516001600160a01b03166398bf3eb66040518163ffffffff1660e01b815260040160206040518083038186803b1580156102f457600080fd5b505afa158015610308573d6000803e3d6000fd5b505050506040513d601f19601f8201168201806040525081019061032c9190610ab4565b9050610340816001600160a01b03166108af565b156103a557806001600160a01b031663b9ee1e056040518163ffffffff1660e01b8152600401600060405180830381600087803b15801561038057600080fd5b505af1158015610394573d6000803e3d6000fd5b505060001990940193506104179050565b6103b7816001600160a01b0316610948565b1561041757806001600160a01b031663dfb2f13b6040518163ffffffff1660e01b8152600401600060405180830381600087803b1580156103f757600080fd5b505af115801561040b573d6000803e3d6000fd5b50506000199094019350505b50600101610291565b5050505050565b61042f6108ab565b6001600160a01b031661044061078b565b6001600160a01b031614610489576040805162461bcd60e51b81526020600482018190526024820152600080516020610d34833981519152604482015290519081900360640190fd5b60028190556040517fb722c0a05d55d91208263d973f28b92fc9599d46d7c490ff2efae89d8f3ddfe8906101fd908390610cbc565b600060606000600160009054906101000a90046001600160a01b03166001600160a01b031663a39fac126040518163ffffffff1660e01b815260040160006040518083038186803b15801561051257600080fd5b505afa158015610526573d6000803e3d6000fd5b505050506040513d6000823e601f3d908101601f1916820160405261054e9190810190610ad0565b905060005b815181101561061057600082828151811061056a57fe5b60200260200101516001600160a01b03166398bf3eb66040518163ffffffff1660e01b815260040160206040518083038186803b1580156105aa57600080fd5b505afa1580156105be573d6000803e3d6000fd5b505050506040513d601f19601f820116820180604052508101906105e29190610ab4565b90506105f6816001600160a01b03166108af565b1561060757600194505050506106d8565b50600101610553565b5060005b81518110156106d157600082828151811061062b57fe5b60200260200101516001600160a01b03166398bf3eb66040518163ffffffff1660e01b815260040160206040518083038186803b15801561066b57600080fd5b505afa15801561067f573d6000803e3d6000fd5b505050506040513d601f19601f820116820180604052508101906106a39190610ab4565b90506106b7816001600160a01b0316610948565b156106c857600194505050506106d8565b50600101610614565b5060009250505b9250929050565b6106e76108ab565b6001600160a01b03166106f861078b565b6001600160a01b031614610741576040805162461bcd60e51b81526020600482018190526024820152600080516020610d34833981519152604482015290519081900360640190fd5b600080546040516001600160a01b03909116907f8be0079c531659141344cd1fd0a4f28419497f9722a3daafe3b4186f6b6457e0908390a3600080546001600160a01b0319169055565b6000546001600160a01b031690565b6001546001600160a01b031681565b6107b16108ab565b6001600160a01b03166107c261078b565b6001600160a01b03161461080b576040805162461bcd60e51b81526020600482018190526024820152600080516020610d34833981519152604482015290519081900360640190fd5b6001600160a01b0381166108505760405162461bcd60e51b8152600401808060200182810382526026815260200180610d0e6026913960400191505060405180910390fd5b600080546040516001600160a01b03808516939216917f8be0079c531659141344cd1fd0a4f28419497f9722a3daafe3b4186f6b6457e091a3600080546001600160a01b0319166001600160a01b0392909216919091179055565b3390565b60006108c2826343b7ae3f60e11b610999565b1561093f57816001600160a01b031663876f5c7e6040518163ffffffff1660e01b815260040160206040518083038186803b15801561090057600080fd5b505afa158015610914573d6000803e3d6000fd5b505050506040513d601f19601f820116820180604052508101906109389190610b85565b9050610943565b5060005b919050565b600061095b82636a74f10760e01b610999565b1561093f57816001600160a01b0316636a74f1076040518163ffffffff1660e01b815260040160206040518083038186803b15801561090057600080fd5b60408051600481526024810182526020810180516001600160e01b03166001600160e01b03198516179052905160009190829081906001600160a01b03871690617530906109e8908690610c56565b6000604051808303818686fa925050503d8060008114610a24576040519150601f19603f3d011682016040523d82523d6000602084013e610a29565b606091505b5091509150602081511015610a445760009350505050610a80565b81158015610a53575060008151115b15610a7b578060405162461bcd60e51b8152600401610a729190610ca9565b60405180910390fd5b509150505b92915050565b805161094381610cf5565b600060208284031215610aa2578081fd5b8135610aad81610cf5565b9392505050565b600060208284031215610ac5578081fd5b8151610aad81610cf5565b60006020808385031215610ae2578182fd5b825167ffffffffffffffff80821115610af9578384fd5b818501915085601f830112610b0c578384fd5b815181811115610b1857fe5b83810260405185828201018181108582111715610b3157fe5b604052828152858101935084860182860187018a1015610b4f578788fd5b8795505b83861015610b7857610b6481610a86565b855260019590950194938601938601610b53565b5098975050505050505050565b600060208284031215610b96578081fd5b81518015158114610aad578182fd5b60008060208385031215610bb7578081fd5b823567ffffffffffffffff80821115610bce578283fd5b818501915085601f830112610be1578283fd5b813581811115610bef578384fd5b866020828501011115610c00578384fd5b60209290920196919550909350505050565b600060208284031215610c23578081fd5b5035919050565b60008151808452610c42816020860160208601610cc5565b601f01601f19169290920160200192915050565b60008251610c68818460208701610cc5565b9190910192915050565b6001600160a01b0391909116815260200190565b6000831515825260406020830152610ca16040830184610c2a565b949350505050565b600060208252610aad6020830184610c2a565b90815260200190565b60005b83811015610ce0578181015183820152602001610cc8565b83811115610cef576000848401525b50505050565b6001600160a01b0381168114610d0a57600080fd5b5056fe4f776e61626c653a206e6577206f776e657220697320746865207a65726f20616464726573734f776e61626c653a2063616c6c6572206973206e6f7420746865206f776e6572a264697066735822122068a439187b8af725b2e4aa196bdd0c87b24b47a9b8a09edfbe78387f896c471364736f6c63430007060033",
  "devdoc": {
    "kind": "dev",
    "methods": {
      "checkUpkeep(bytes)": {
        "params": {
          "checkData": "Not used in this implementation."
        },
        "returns": {
          "upkeepNeeded": "as true if performUpkeep() needs to be called, false otherwise. performData returned empty. "
        }
      },
      "owner()": {
        "details": "Returns the address of the current owner."
      },
      "performUpkeep(bytes)": {
        "params": {
          "performData": "Not used in this implementation."
        }
      },
      "renounceOwnership()": {
        "details": "Leaves the contract without owner. It will not be possible to call `onlyOwner` functions anymore. Can only be called by the current owner. NOTE: Renouncing ownership will leave the contract without an owner, thereby removing any functionality that is only available to the owner."
      },
      "transferOwnership(address)": {
        "details": "Transfers ownership of the contract to a new account (`newOwner`). Can only be called by the current owner."
      },
      "updatePrizePoolRegistry(address)": {
        "params": {
          "_prizePoolRegistry": "New registry address"
        }
      },
      "updateUpkeepBatchSize(uint256)": {
        "params": {
          "_upkeepBatchSize": "Amount upkeepBatchSize will be set to"
        }
      }
    },
    "stateVariables": {
      "upkeepBatchSize": {
        "details": "Set accordingly to prevent out-of-gas transactions during calls to performUpkeep"
      }
    },
    "version": 1
  },
  "userdoc": {
    "events": {
      "UpkeepBatchSizeUpdated(uint256)": {
        "notice": "Emitted when the upkeepBatchSize has been changed"
      },
      "UpkeepPrizePoolRegistryUpdated(address)": {
        "notice": "Emitted when the prize pool registry has been changed"
      }
    },
    "kind": "user",
    "methods": {
      "checkUpkeep(bytes)": {
        "notice": "Checks if PrizePools require upkeep. Call in a static manner every block by the Chainlink Upkeep network."
      },
      "performUpkeep(bytes)": {
        "notice": "Performs upkeep on the prize pools. "
      },
      "prizePoolRegistry()": {
        "notice": "Stores the maximum number of prize strategies to upkeep. "
      },
      "updatePrizePoolRegistry(address)": {
        "notice": "Updates the prize pool registry"
      },
      "updateUpkeepBatchSize(uint256)": {
        "notice": "Updates the upkeepBatchSize which is set to prevent out of gas situations"
      },
      "upkeepBatchSize()": {
        "notice": "Stores the maximum number of prize strategies to upkeep. "
      }
    },
    "notice": "Contract implements Chainlink's Upkeep system interface, automating the upkeep of PrizePools in the associated registry. ",
    "version": 1
  },
  "storageLayout": {
    "storage": [
      {
        "astId": 7,
        "contract": "contracts/PrizeStrategyUpkeep.sol:PrizeStrategyUpkeep",
        "label": "_owner",
        "offset": 0,
        "slot": "0",
        "type": "t_address"
      },
      {
        "astId": 726,
        "contract": "contracts/PrizeStrategyUpkeep.sol:PrizeStrategyUpkeep",
        "label": "prizePoolRegistry",
        "offset": 0,
        "slot": "1",
        "type": "t_contract(AddressRegistry)321"
      },
      {
        "astId": 729,
        "contract": "contracts/PrizeStrategyUpkeep.sol:PrizeStrategyUpkeep",
        "label": "upkeepBatchSize",
        "offset": 0,
        "slot": "2",
        "type": "t_uint256"
      }
    ],
    "types": {
      "t_address": {
        "encoding": "inplace",
        "label": "address",
        "numberOfBytes": "20"
      },
      "t_contract(AddressRegistry)321": {
        "encoding": "inplace",
        "label": "contract AddressRegistry",
        "numberOfBytes": "20"
      },
      "t_uint256": {
        "encoding": "inplace",
        "label": "uint256",
        "numberOfBytes": "32"
      }
    }
  }
}