{
  "address": "0x77c39a3CBE6185cFE977C1BDEeFE59A2023023b7",
  "abi": [
    {
      "inputs": [
        {
          "internalType": "contract AddressRegistry",
          "name": "_prizePoolRegistry",
          "type": "address"
        },
        {
          "internalType": "uint256",
          "name": "_upkeepBatchSize",
          "type": "uint256"
        },
        {
          "internalType": "uint256",
          "name": "_upkeepMinimumBlockInterval",
          "type": "uint256"
        }
      ],
      "stateMutability": "nonpayable",
      "type": "constructor"
    },
    {
      "anonymous": false,
      "inputs": [
        {
          "indexed": true,
          "internalType": "address",
          "name": "previousOwner",
          "type": "address"
        },
        {
          "indexed": true,
          "internalType": "address",
          "name": "newOwner",
          "type": "address"
        }
      ],
      "name": "OwnershipTransferred",
      "type": "event"
    },
    {
      "anonymous": false,
      "inputs": [
        {
          "indexed": false,
          "internalType": "uint256",
          "name": "upkeepBatchSize",
          "type": "uint256"
        }
      ],
      "name": "UpkeepBatchSizeUpdated",
      "type": "event"
    },
    {
      "anonymous": false,
      "inputs": [
        {
          "indexed": false,
          "internalType": "uint256",
          "name": "upkeepMinimumBlockInterval",
          "type": "uint256"
        }
      ],
      "name": "UpkeepMinimumBlockIntervalUpdated",
      "type": "event"
    },
    {
      "anonymous": false,
      "inputs": [
        {
          "indexed": false,
          "internalType": "uint256",
          "name": "startAwardsPerformed",
          "type": "uint256"
        },
        {
          "indexed": false,
          "internalType": "uint256",
          "name": "completeAwardsPerformed",
          "type": "uint256"
        }
      ],
      "name": "UpkeepPerformed",
      "type": "event"
    },
    {
      "anonymous": false,
      "inputs": [
        {
          "indexed": false,
          "internalType": "contract AddressRegistry",
          "name": "prizePoolRegistry",
          "type": "address"
        }
      ],
      "name": "UpkeepPrizePoolRegistryUpdated",
      "type": "event"
    },
    {
      "inputs": [
        {
          "internalType": "bytes",
          "name": "checkData",
          "type": "bytes"
        }
      ],
      "name": "checkUpkeep",
      "outputs": [
        {
          "internalType": "bool",
          "name": "upkeepNeeded",
          "type": "bool"
        },
        {
          "internalType": "bytes",
          "name": "performData",
          "type": "bytes"
        }
      ],
      "stateMutability": "view",
      "type": "function"
    },
    {
      "inputs": [],
      "name": "owner",
      "outputs": [
        {
          "internalType": "address",
          "name": "",
          "type": "address"
        }
      ],
      "stateMutability": "view",
      "type": "function"
    },
    {
      "inputs": [
        {
          "internalType": "bytes",
          "name": "performData",
          "type": "bytes"
        }
      ],
      "name": "performUpkeep",
      "outputs": [],
      "stateMutability": "nonpayable",
      "type": "function"
    },
    {
      "inputs": [],
      "name": "prizePoolRegistry",
      "outputs": [
        {
          "internalType": "contract AddressRegistry",
          "name": "",
          "type": "address"
        }
      ],
      "stateMutability": "view",
      "type": "function"
    },
    {
      "inputs": [],
      "name": "renounceOwnership",
      "outputs": [],
      "stateMutability": "nonpayable",
      "type": "function"
    },
    {
      "inputs": [
        {
          "internalType": "address",
          "name": "newOwner",
          "type": "address"
        }
      ],
      "name": "transferOwnership",
      "outputs": [],
      "stateMutability": "nonpayable",
      "type": "function"
    },
    {
      "inputs": [
        {
          "internalType": "contract AddressRegistry",
          "name": "_prizePoolRegistry",
          "type": "address"
        }
      ],
      "name": "updatePrizePoolRegistry",
      "outputs": [],
      "stateMutability": "nonpayable",
      "type": "function"
    },
    {
      "inputs": [
        {
          "internalType": "uint256",
          "name": "_upkeepBatchSize",
          "type": "uint256"
        }
      ],
      "name": "updateUpkeepBatchSize",
      "outputs": [],
      "stateMutability": "nonpayable",
      "type": "function"
    },
    {
      "inputs": [
        {
          "internalType": "uint256",
          "name": "_upkeepMinimumBlockInterval",
          "type": "uint256"
        }
      ],
      "name": "updateUpkeepMinimumBlockInterval",
      "outputs": [],
      "stateMutability": "nonpayable",
      "type": "function"
    },
    {
      "inputs": [],
      "name": "upkeepBatchSize",
      "outputs": [
        {
          "internalType": "uint256",
          "name": "",
          "type": "uint256"
        }
      ],
      "stateMutability": "view",
      "type": "function"
    },
    {
      "inputs": [],
      "name": "upkeepLastUpkeepBlockNumber",
      "outputs": [
        {
          "internalType": "uint256",
          "name": "",
          "type": "uint256"
        }
      ],
      "stateMutability": "view",
      "type": "function"
    },
    {
      "inputs": [],
      "name": "upkeepMinimumBlockInterval",
      "outputs": [
        {
          "internalType": "uint256",
          "name": "",
          "type": "uint256"
        }
      ],
      "stateMutability": "view",
      "type": "function"
    }
  ],
  "transactionHash": "0x36dc42b776ab1d838dac89060b33daa19095f1b965bf3e99532e75125dab6309",
  "args": [
    "0x34733851E2047F8d0e1aa91124A6f9EaDc54D253",
    2,
    15
  ],
  "solcInputHash": "21f767d8c04b17666e7a9e9d6c23293b",
  "bytecode": "0x608060405234801561001057600080fd5b5060405161114838038061114883398101604081905261002f9161015c565b6000610039610158565b600080546001600160a01b0319166001600160a01b0383169081178255604051929350917f8be0079c531659141344cd1fd0a4f28419497f9722a3daafe3b4186f6b6457e0908290a350600180546001600160a01b0319166001600160a01b0385161790556040517f3945779a0b94143e19ceb0254d7ff1fbe6c4265b6328031e7cc1274c2b8d77c7906100ce90859061019d565b60405180910390a160028290556040517fb722c0a05d55d91208263d973f28b92fc9599d46d7c490ff2efae89d8f3ddfe89061010b9084906101b1565b60405180910390a160048190556040517f7a5354403e343fa02d40d3906b696f894d8b73fb8a898b07d7414f29866ef5d3906101489083906101b1565b60405180910390a15050506101ba565b3390565b600080600060608486031215610170578283fd5b83516001600160a01b0381168114610186578384fd5b602085015160409095015190969495509392505050565b6001600160a01b0391909116815260200190565b90815260200190565b610f7f806101c96000396000f3fe608060405234801561001057600080fd5b50600436106100b45760003560e01c8063715018a611610071578063715018a61461013b5780638da5cb5b14610143578063ad06337f14610158578063ba450a1a14610160578063f208517014610168578063f2fde38b1461017b576100b4565b80632dc41821146100b957806343d73f2d146100d75780634585e33b146100ec5780634fd47a76146100ff5780635fdc3b58146101075780636e04ff0d1461011a575b600080fd5b6100c161018e565b6040516100ce9190610ea4565b60405180910390f35b6100ea6100e5366004610c1c565b610194565b005b6100ea6100fa366004610d30565b61024c565b6100c161050d565b6100ea610115366004610d9d565b610513565b61012d610128366004610d30565b6105aa565b6040516100ce929190610e11565b6100ea6107d6565b61014b610882565b6040516100ce9190610dfd565b61014b610891565b6100c16108a0565b6100ea610176366004610d9d565b6108a6565b6100ea610189366004610c1c565b61093d565b60025481565b61019c610a3f565b6001600160a01b03166101ad610882565b6001600160a01b0316146101f6576040805162461bcd60e51b81526020600482018190526024820152600080516020610f2a833981519152604482015290519081900360640190fd5b600180546001600160a01b0319166001600160a01b0383161790556040517f3945779a0b94143e19ceb0254d7ff1fbe6c4265b6328031e7cc1274c2b8d77c790610241908390610dfd565b60405180910390a150565b6003546004548101431161027b5760405162461bcd60e51b815260040161027290610e47565b60405180910390fd5b600154604080516351cfd60960e11b815290516000926001600160a01b03169163a39fac129160048083019286929190829003018186803b1580156102bf57600080fd5b505afa1580156102d3573d6000803e3d6000fd5b505050506040513d6000823e601f3d908101601f191682016040526102fb9190810190610c5b565b60025490915060008080805b6000851180156103175750855184105b156104a457600086858151811061032a57fe5b60200260200101516001600160a01b03166398bf3eb66040518163ffffffff1660e01b815260040160206040518083038186803b15801561036a57600080fd5b505afa15801561037e573d6000803e3d6000fd5b505050506040513d601f19601f820116820180604052508101906103a29190610c3f565b90506103b6816001600160a01b0316610a43565b1561042057806001600160a01b031663b9ee1e056040518163ffffffff1660e01b8152600401600060405180830381600087803b1580156103f657600080fd5b505af115801561040a573d6000803e3d6000fd5b5050600019909701965050600190930192610498565b610432816001600160a01b0316610adc565b1561049857806001600160a01b031663dfb2f13b6040518163ffffffff1660e01b8152600401600060405180830381600087803b15801561047257600080fd5b505af1158015610486573d6000803e3d6000fd5b50506000199097019650506001909201915b50600190930192610307565b60008311806104b35750600082115b156104bb5750435b8087146105025760038190556040517f9fbc2aeb5bf6200e5499d345acddf1dd462c37becb4673d661250b89ced7ff6a906104f99085908590610ead565b60405180910390a15b505050505050505050565b60045481565b61051b610a3f565b6001600160a01b031661052c610882565b6001600160a01b031614610575576040805162461bcd60e51b81526020600482018190526024820152600080516020610f2a833981519152604482015290519081900360640190fd5b60028190556040517fb722c0a05d55d91208263d973f28b92fc9599d46d7c490ff2efae89d8f3ddfe890610241908390610ea4565b60006060600454600354014310156105c557600091506107cf565b600154604080516351cfd60960e11b815290516000926001600160a01b03169163a39fac129160048083019286929190829003018186803b15801561060957600080fd5b505afa15801561061d573d6000803e3d6000fd5b505050506040513d6000823e601f3d908101601f191682016040526106459190810190610c5b565b905060005b815181101561070757600082828151811061066157fe5b60200260200101516001600160a01b03166398bf3eb66040518163ffffffff1660e01b815260040160206040518083038186803b1580156106a157600080fd5b505afa1580156106b5573d6000803e3d6000fd5b505050506040513d601f19601f820116820180604052508101906106d99190610c3f565b90506106ed816001600160a01b0316610a43565b156106fe57600194505050506107cf565b5060010161064a565b5060005b81518110156107c857600082828151811061072257fe5b60200260200101516001600160a01b03166398bf3eb66040518163ffffffff1660e01b815260040160206040518083038186803b15801561076257600080fd5b505afa158015610776573d6000803e3d6000fd5b505050506040513d601f19601f8201168201806040525081019061079a9190610c3f565b90506107ae816001600160a01b0316610adc565b156107bf57600194505050506107cf565b5060010161070b565b5060009250505b9250929050565b6107de610a3f565b6001600160a01b03166107ef610882565b6001600160a01b031614610838576040805162461bcd60e51b81526020600482018190526024820152600080516020610f2a833981519152604482015290519081900360640190fd5b600080546040516001600160a01b03909116907f8be0079c531659141344cd1fd0a4f28419497f9722a3daafe3b4186f6b6457e0908390a3600080546001600160a01b0319169055565b6000546001600160a01b031690565b6001546001600160a01b031681565b60035481565b6108ae610a3f565b6001600160a01b03166108bf610882565b6001600160a01b031614610908576040805162461bcd60e51b81526020600482018190526024820152600080516020610f2a833981519152604482015290519081900360640190fd5b60048190556040517f7a5354403e343fa02d40d3906b696f894d8b73fb8a898b07d7414f29866ef5d390610241908390610ea4565b610945610a3f565b6001600160a01b0316610956610882565b6001600160a01b03161461099f576040805162461bcd60e51b81526020600482018190526024820152600080516020610f2a833981519152604482015290519081900360640190fd5b6001600160a01b0381166109e45760405162461bcd60e51b8152600401808060200182810382526026815260200180610f046026913960400191505060405180910390fd5b600080546040516001600160a01b03808516939216917f8be0079c531659141344cd1fd0a4f28419497f9722a3daafe3b4186f6b6457e091a3600080546001600160a01b0319166001600160a01b0392909216919091179055565b3390565b6000610a56826343b7ae3f60e11b610b2d565b15610ad357816001600160a01b031663876f5c7e6040518163ffffffff1660e01b815260040160206040518083038186803b158015610a9457600080fd5b505afa158015610aa8573d6000803e3d6000fd5b505050506040513d601f19601f82011682018060405250810190610acc9190610d10565b9050610ad7565b5060005b919050565b6000610aef82636a74f10760e01b610b2d565b15610ad357816001600160a01b0316636a74f1076040518163ffffffff1660e01b815260040160206040518083038186803b158015610a9457600080fd5b60408051600481526024810182526020810180516001600160e01b03166001600160e01b03198516179052905160009190829081906001600160a01b0387169061753090610b7c908690610de1565b6000604051808303818686fa925050503d8060008114610bb8576040519150601f19603f3d011682016040523d82523d6000602084013e610bbd565b606091505b5091509150602081511015610bd85760009350505050610c0b565b81158015610be7575060008151115b15610c06578060405162461bcd60e51b81526004016102729190610e34565b509150505b92915050565b8051610ad781610eeb565b600060208284031215610c2d578081fd5b8135610c3881610eeb565b9392505050565b600060208284031215610c50578081fd5b8151610c3881610eeb565b60006020808385031215610c6d578182fd5b825167ffffffffffffffff80821115610c84578384fd5b818501915085601f830112610c97578384fd5b815181811115610ca357fe5b83810260405185828201018181108582111715610cbc57fe5b604052828152858101935084860182860187018a1015610cda578788fd5b8795505b83861015610d0357610cef81610c11565b855260019590950194938601938601610cde565b5098975050505050505050565b600060208284031215610d21578081fd5b81518015158114610c38578182fd5b60008060208385031215610d42578081fd5b823567ffffffffffffffff80821115610d59578283fd5b818501915085601f830112610d6c578283fd5b813581811115610d7a578384fd5b866020828501011115610d8b578384fd5b60209290920196919550909350505050565b600060208284031215610dae578081fd5b5035919050565b60008151808452610dcd816020860160208601610ebb565b601f01601f19169290920160200192915050565b60008251610df3818460208701610ebb565b9190910192915050565b6001600160a01b0391909116815260200190565b6000831515825260406020830152610e2c6040830184610db5565b949350505050565b600060208252610c386020830184610db5565b60208082526037908201527f5072697a65537472617465677955706b6565703a3a6d696e696d756d20626c6f60408201527f636b20696e74657276616c206e6f742072656163686564000000000000000000606082015260800190565b90815260200190565b918252602082015260400190565b60005b83811015610ed6578181015183820152602001610ebe565b83811115610ee5576000848401525b50505050565b6001600160a01b0381168114610f0057600080fd5b5056fe4f776e61626c653a206e6577206f776e657220697320746865207a65726f20616464726573734f776e61626c653a2063616c6c6572206973206e6f7420746865206f776e6572a264697066735822122005f26857c3aef760ce1a2e5ee1eacda97dd23f3b706cc651958e09048700982964736f6c63430007060033",
  "devdoc": {
    "kind": "dev",
    "methods": {
      "checkUpkeep(bytes)": {
        "params": {
          "checkData": "Not used in this implementation."
        },
        "returns": {
          "upkeepNeeded": "as true if performUpkeep() needs to be called, false otherwise. performData returned empty. "
        }
      },
      "owner()": {
        "details": "Returns the address of the current owner."
      },
      "performUpkeep(bytes)": {
        "params": {
          "performData": "Not used in this implementation."
        }
      },
      "renounceOwnership()": {
        "details": "Leaves the contract without owner. It will not be possible to call `onlyOwner` functions anymore. Can only be called by the current owner. NOTE: Renouncing ownership will leave the contract without an owner, thereby removing any functionality that is only available to the owner."
      },
      "transferOwnership(address)": {
        "details": "Transfers ownership of the contract to a new account (`newOwner`). Can only be called by the current owner."
      },
      "updatePrizePoolRegistry(address)": {
        "params": {
          "_prizePoolRegistry": "New registry address"
        }
      },
      "updateUpkeepBatchSize(uint256)": {
        "params": {
          "_upkeepBatchSize": "Amount upkeepBatchSize will be set to"
        }
      },
      "updateUpkeepMinimumBlockInterval(uint256)": {
        "params": {
          "_upkeepMinimumBlockInterval": "New upkeepMinimumBlockInterval"
        }
      }
    },
    "stateVariables": {
      "upkeepBatchSize": {
        "details": "Set accordingly to prevent out-of-gas transactions during calls to performUpkeep"
      }
    },
    "version": 1
  },
  "userdoc": {
    "events": {
      "UpkeepBatchSizeUpdated(uint256)": {
        "notice": "Emitted when the upkeepBatchSize has been changed"
      },
      "UpkeepMinimumBlockIntervalUpdated(uint256)": {
        "notice": "Emitted when the Upkeep Minimum Block interval is updated"
      },
      "UpkeepPerformed(uint256,uint256)": {
        "notice": "Emitted when the Upkeep has been performed"
      },
      "UpkeepPrizePoolRegistryUpdated(address)": {
        "notice": "Emitted when the prize pool registry has been changed"
      }
    },
    "kind": "user",
    "methods": {
      "checkUpkeep(bytes)": {
        "notice": "Checks if PrizePools require upkeep. Call in a static manner every block by the Chainlink Upkeep network."
      },
      "performUpkeep(bytes)": {
        "notice": "Performs upkeep on the prize pools. "
      },
      "prizePoolRegistry()": {
        "notice": "Stores the maximum number of prize strategies to upkeep. "
      },
      "updatePrizePoolRegistry(address)": {
        "notice": "Updates the prize pool registry"
      },
      "updateUpkeepBatchSize(uint256)": {
        "notice": "Updates the upkeepBatchSize which is set to prevent out of gas situations"
      },
      "updateUpkeepMinimumBlockInterval(uint256)": {
        "notice": "Updates the upkeep minimum interval blocks"
      },
      "upkeepBatchSize()": {
        "notice": "Stores the maximum number of prize strategies to upkeep. "
      },
      "upkeepLastUpkeepBlockNumber()": {
        "notice": "Stores the last upkeep block number"
      },
      "upkeepMinimumBlockInterval()": {
        "notice": "Stores the minimum block interval between permitted performUpkeep() calls"
      }
    },
    "notice": "Contract implements Chainlink's Upkeep system interface, automating the upkeep of PrizePools in the associated registry. ",
    "version": 1
  },
  "storageLayout": {
    "storage": [
      {
        "astId": 7,
        "contract": "contracts/PrizeStrategyUpkeep.sol:PrizeStrategyUpkeep",
        "label": "_owner",
        "offset": 0,
        "slot": "0",
        "type": "t_address"
      },
      {
        "astId": 726,
        "contract": "contracts/PrizeStrategyUpkeep.sol:PrizeStrategyUpkeep",
        "label": "prizePoolRegistry",
        "offset": 0,
        "slot": "1",
        "type": "t_contract(AddressRegistry)321"
      },
      {
        "astId": 729,
        "contract": "contracts/PrizeStrategyUpkeep.sol:PrizeStrategyUpkeep",
        "label": "upkeepBatchSize",
        "offset": 0,
        "slot": "2",
        "type": "t_uint256"
      },
      {
        "astId": 732,
        "contract": "contracts/PrizeStrategyUpkeep.sol:PrizeStrategyUpkeep",
        "label": "upkeepLastUpkeepBlockNumber",
        "offset": 0,
        "slot": "3",
        "type": "t_uint256"
      },
      {
        "astId": 735,
        "contract": "contracts/PrizeStrategyUpkeep.sol:PrizeStrategyUpkeep",
        "label": "upkeepMinimumBlockInterval",
        "offset": 0,
        "slot": "4",
        "type": "t_uint256"
      }
    ],
    "types": {
      "t_address": {
        "encoding": "inplace",
        "label": "address",
        "numberOfBytes": "20"
      },
      "t_contract(AddressRegistry)321": {
        "encoding": "inplace",
        "label": "contract AddressRegistry",
        "numberOfBytes": "20"
      },
      "t_uint256": {
        "encoding": "inplace",
        "label": "uint256",
        "numberOfBytes": "32"
      }
    }
  }
}