{
  "address": "0x0d6487BcF92a805a811BcB1e1c9b2425DE3aA703",
  "abi": [
    {
      "inputs": [
        {
          "internalType": "address",
          "name": "_prizePoolRegistry",
          "type": "address"
        },
        {
          "internalType": "uint256",
          "name": "_upkeepBatchSize",
          "type": "uint256"
        }
      ],
      "stateMutability": "nonpayable",
      "type": "constructor"
    },
    {
      "inputs": [
        {
          "internalType": "bytes",
          "name": "checkData",
          "type": "bytes"
        }
      ],
      "name": "checkUpkeep",
      "outputs": [
        {
          "internalType": "bool",
          "name": "upkeepNeeded",
          "type": "bool"
        },
        {
          "internalType": "bytes",
          "name": "performData",
          "type": "bytes"
        }
      ],
      "stateMutability": "nonpayable",
      "type": "function"
    },
    {
      "inputs": [
        {
          "internalType": "bytes",
          "name": "performData",
          "type": "bytes"
        }
      ],
      "name": "performUpkeep",
      "outputs": [],
      "stateMutability": "nonpayable",
      "type": "function"
    },
    {
      "inputs": [],
      "name": "prizePoolRegistry",
      "outputs": [
        {
          "internalType": "address",
          "name": "",
          "type": "address"
        }
      ],
      "stateMutability": "view",
      "type": "function"
    },
    {
      "inputs": [],
      "name": "upkeepBatchSize",
      "outputs": [
        {
          "internalType": "uint256",
          "name": "",
          "type": "uint256"
        }
      ],
      "stateMutability": "view",
      "type": "function"
    }
  ],
  "transactionHash": "0x028e0f1c6f5c46ce12d886dc9f6346ca3b05217ef1cf122846667411138e8d64",
  "args": [
    "0xcb901A9a76D01A16b1a0529F30110Dd0F9A77024",
    5
  ],
  "solcInputHash": "4e8203afa008e9aec6b04940a7a9a5b1",
  "bytecode": "0x608060405234801561001057600080fd5b50604051610a14380380610a1483398101604081905261002f91610058565b600080546001600160a01b0319166001600160a01b039390931692909217909155600155610090565b6000806040838503121561006a578182fd5b82516001600160a01b0381168114610080578283fd5b6020939093015192949293505050565b6109758061009f6000396000f3fe608060405234801561001057600080fd5b506004361061004c5760003560e01c80632dc41821146100515780634585e33b1461006f5780636e04ff0d14610084578063ad06337f146100a5575b600080fd5b6100596100ba565b6040516100669190610906565b60405180910390f35b61008261007d366004610807565b6100c0565b005b610097610092366004610807565b6102ee565b6040516100669291906108d0565b6100ad610514565b60405161006691906108bc565b60015481565b60008060009054906101000a90046001600160a01b03166001600160a01b031663a28e62196040518163ffffffff1660e01b8152600401600060405180830381600087803b15801561011157600080fd5b505af1158015610125573d6000803e3d6000fd5b505050506040513d6000823e601f3d908101601f1916820160405261014d9190810190610732565b60015490915060005b6000821180156101665750825181105b156102e757600083828151811061017957fe5b60200260200101516001600160a01b03166398bf3eb66040518163ffffffff1660e01b8152600401602060405180830381600087803b1580156101bb57600080fd5b505af11580156101cf573d6000803e3d6000fd5b505050506040513d601f19601f820116820180604052508101906101f39190610711565b9050610207816001600160a01b0316610523565b1561026c57806001600160a01b031663b9ee1e056040518163ffffffff1660e01b8152600401600060405180830381600087803b15801561024757600080fd5b505af115801561025b573d6000803e3d6000fd5b505060001990940193506102de9050565b61027e816001600160a01b03166105bc565b156102de57806001600160a01b031663dfb2f13b6040518163ffffffff1660e01b8152600401600060405180830381600087803b1580156102be57600080fd5b505af11580156102d2573d6000803e3d6000fd5b50506000199094019350505b50600101610156565b5050505050565b6000606060008060009054906101000a90046001600160a01b03166001600160a01b031663a28e62196040518163ffffffff1660e01b8152600401600060405180830381600087803b15801561034357600080fd5b505af1158015610357573d6000803e3d6000fd5b505050506040513d6000823e601f3d908101601f1916820160405261037f9190810190610732565b905060005b815181101561044357600082828151811061039b57fe5b60200260200101516001600160a01b03166398bf3eb66040518163ffffffff1660e01b8152600401602060405180830381600087803b1580156103dd57600080fd5b505af11580156103f1573d6000803e3d6000fd5b505050506040513d601f19601f820116820180604052508101906104159190610711565b9050610429816001600160a01b0316610523565b1561043a576001945050505061050d565b50600101610384565b5060005b815181101561050657600082828151811061045e57fe5b60200260200101516001600160a01b03166398bf3eb66040518163ffffffff1660e01b8152600401602060405180830381600087803b1580156104a057600080fd5b505af11580156104b4573d6000803e3d6000fd5b505050506040513d601f19601f820116820180604052508101906104d89190610711565b90506104ec816001600160a01b03166105bc565b156104fd576001945050505061050d565b50600101610447565b5060009250505b9250929050565b6000546001600160a01b031681565b6000610536826343b7ae3f60e11b61060d565b156105b357816001600160a01b031663876f5c7e6040518163ffffffff1660e01b815260040160206040518083038186803b15801561057457600080fd5b505afa158015610588573d6000803e3d6000fd5b505050506040513d601f19601f820116820180604052508101906105ac91906107e7565b90506105b7565b5060005b919050565b60006105cf82636a74f10760e01b61060d565b156105b357816001600160a01b0316636a74f1076040518163ffffffff1660e01b815260040160206040518083038186803b15801561057457600080fd5b60408051600481526024810182526020810180516001600160e01b03166001600160e01b03198516179052905160009190829081906001600160a01b038716906175309061065c9086906108a0565b6000604051808303818686fa925050503d8060008114610698576040519150601f19603f3d011682016040523d82523d6000602084013e61069d565b606091505b50915091506020815110156106b857600093505050506106f4565b811580156106c7575060008151115b156106ef578060405162461bcd60e51b81526004016106e691906108f3565b60405180910390fd5b509150505b92915050565b80516001600160a01b03811681146105b757600080fd5b600060208284031215610722578081fd5b61072b826106fa565b9392505050565b60006020808385031215610744578182fd5b825167ffffffffffffffff8082111561075b578384fd5b818501915085601f83011261076e578384fd5b81518181111561077a57fe5b8381026040518582820101818110858211171561079357fe5b604052828152858101935084860182860187018a10156107b1578788fd5b8795505b838610156107da576107c6816106fa565b8552600195909501949386019386016107b5565b5098975050505050505050565b6000602082840312156107f8578081fd5b8151801515811461072b578182fd5b60008060208385031215610819578081fd5b823567ffffffffffffffff80821115610830578283fd5b818501915085601f830112610843578283fd5b813581811115610851578384fd5b866020828501011115610862578384fd5b60209290920196919550909350505050565b6000815180845261088c81602086016020860161090f565b601f01601f19169290920160200192915050565b600082516108b281846020870161090f565b9190910192915050565b6001600160a01b0391909116815260200190565b60008315158252604060208301526108eb6040830184610874565b949350505050565b60006020825261072b6020830184610874565b90815260200190565b60005b8381101561092a578181015183820152602001610912565b83811115610939576000848401525b5050505056fea2646970667358221220584bcdbd005e7d5ca8c39069fb7523605719692b1c8f07f7699f7cef60140eff64736f6c63430007060033",
  "devdoc": {
    "kind": "dev",
    "methods": {
      "checkUpkeep(bytes)": {
        "params": {
          "checkData": "Not used in this implementation."
        },
        "returns": {
          "upkeepNeeded": "as true if performUpkeep() needs to be called, false otherwise. performData returned empty. "
        }
      },
      "performUpkeep(bytes)": {
        "params": {
          "performData": "Not used in this implementation."
        }
      }
    },
    "version": 1
  },
  "userdoc": {
    "kind": "user",
    "methods": {
      "checkUpkeep(bytes)": {
        "notice": "Checks if PrizePools require upkeep. Call in a static manner every block by the Chainlink Upkeep network."
      },
      "performUpkeep(bytes)": {
        "notice": "Performs upkeep on the prize pools. "
      }
    },
    "notice": "Contract implements Chainlink's Upkeep system interface, automating the upkeep of PrizePools in the associated registry. ",
    "version": 1
  },
  "storageLayout": {
    "storage": [
      {
        "astId": 255,
        "contract": "contracts/PrizeStrategyUpkeep.sol:PrizeStrategyUpkeep",
        "label": "prizePoolRegistry",
        "offset": 0,
        "slot": "0",
        "type": "t_address"
      },
      {
        "astId": 257,
        "contract": "contracts/PrizeStrategyUpkeep.sol:PrizeStrategyUpkeep",
        "label": "upkeepBatchSize",
        "offset": 0,
        "slot": "1",
        "type": "t_uint256"
      }
    ],
    "types": {
      "t_address": {
        "encoding": "inplace",
        "label": "address",
        "numberOfBytes": "20"
      },
      "t_uint256": {
        "encoding": "inplace",
        "label": "uint256",
        "numberOfBytes": "32"
      }
    }
  }
}