{
  "address": "0xcb901A9a76D01A16b1a0529F30110Dd0F9A77024",
  "abi": [
    {
      "inputs": [],
      "stateMutability": "nonpayable",
      "type": "constructor"
    },
    {
      "anonymous": false,
      "inputs": [
        {
          "indexed": true,
          "internalType": "address",
          "name": "previousOwner",
          "type": "address"
        },
        {
          "indexed": true,
          "internalType": "address",
          "name": "newOwner",
          "type": "address"
        }
      ],
      "name": "OwnershipTransferred",
      "type": "event"
    },
    {
      "anonymous": false,
      "inputs": [
        {
          "indexed": true,
          "internalType": "address",
          "name": "prizePool",
          "type": "address"
        }
      ],
      "name": "PrizePoolAdded",
      "type": "event"
    },
    {
      "anonymous": false,
      "inputs": [
        {
          "indexed": true,
          "internalType": "address",
          "name": "prizePool",
          "type": "address"
        }
      ],
      "name": "PrizePoolRemoved",
      "type": "event"
    },
    {
      "inputs": [
        {
          "internalType": "address[]",
          "name": "_prizePools",
          "type": "address[]"
        }
      ],
      "name": "addPrizePools",
      "outputs": [],
      "stateMutability": "nonpayable",
      "type": "function"
    },
    {
      "inputs": [],
      "name": "getPrizePools",
      "outputs": [
        {
          "internalType": "address[]",
          "name": "",
          "type": "address[]"
        }
      ],
      "stateMutability": "nonpayable",
      "type": "function"
    },
    {
      "inputs": [],
      "name": "owner",
      "outputs": [
        {
          "internalType": "address",
          "name": "",
          "type": "address"
        }
      ],
      "stateMutability": "view",
      "type": "function"
    },
    {
      "inputs": [
        {
          "internalType": "address",
          "name": "_previousPrizePool",
          "type": "address"
        },
        {
          "internalType": "address",
          "name": "_prizePool",
          "type": "address"
        }
      ],
      "name": "removePrizePool",
      "outputs": [],
      "stateMutability": "nonpayable",
      "type": "function"
    },
    {
      "inputs": [],
      "name": "renounceOwnership",
      "outputs": [],
      "stateMutability": "nonpayable",
      "type": "function"
    },
    {
      "inputs": [
        {
          "internalType": "address",
          "name": "newOwner",
          "type": "address"
        }
      ],
      "name": "transferOwnership",
      "outputs": [],
      "stateMutability": "nonpayable",
      "type": "function"
    }
  ],
  "transactionHash": "0x87bfbfbf1ff2484da1de3bb99a216745b521e61173e288ac870e6710186e5ba9",
  "args": [],
  "solcInputHash": "4e8203afa008e9aec6b04940a7a9a5b1",
  "bytecode": "0x608060405234801561001057600080fd5b50600061001b61007e565b600080546001600160a01b0319166001600160a01b0383169081178255604051929350917f8be0079c531659141344cd1fd0a4f28419497f9722a3daafe3b4186f6b6457e0908290a350610079600161008260201b61044d1760201c565b6100ea565b3390565b8054156100c5576040805162461bcd60e51b815260206004820152600c60248201526b105b1c9958591e481a5b9a5d60a21b604482015290519081900360640190fd5b60016000818152918101602052604090912080546001600160a01b0319169091179055565b610982806100f96000396000f3fe608060405234801561001057600080fd5b50600436106100625760003560e01c8063097a584f14610067578063715018a61461007c5780638da5cb5b14610084578063a28e6219146100a2578063d7d4796c146100b7578063f2fde38b146100ca575b600080fd5b61007a610075366004610836565b6100dd565b005b61007a6101d9565b61008c610285565b60405161009991906108a5565b60405180910390f35b6100aa610294565b60405161009991906108b9565b61007a6100c5366004610804565b6102a5565b61007a6100d83660046107e3565b61034b565b6100e56104b5565b6001600160a01b03166100f6610285565b6001600160a01b03161461013f576040805162461bcd60e51b8152602060048201819052602482015260008051602061092d833981519152604482015290519081900360640190fd5b60005b818110156101d45761017683838381811061015957fe5b905060200201602081019061016e91906107e3565b6001906104b9565b82828281811061018257fe5b905060200201602081019061019791906107e3565b6001600160a01b03167f59394a9dad6d755c0a4f06421118bb52b49ff946870e9ab26fe4547dd5c3d63260405160405180910390a2600101610142565b505050565b6101e16104b5565b6001600160a01b03166101f2610285565b6001600160a01b03161461023b576040805162461bcd60e51b8152602060048201819052602482015260008051602061092d833981519152604482015290519081900360640190fd5b600080546040516001600160a01b03909116907f8be0079c531659141344cd1fd0a4f28419497f9722a3daafe3b4186f6b6457e0908390a3600080546001600160a01b0319169055565b6000546001600160a01b031690565b60606102a060016105cd565b905090565b6102ad6104b5565b6001600160a01b03166102be610285565b6001600160a01b031614610307576040805162461bcd60e51b8152602060048201819052602482015260008051602061092d833981519152604482015290519081900360640190fd5b610313600183836106b0565b6040516001600160a01b038216907f74ea0f566f4d31f3c79bf82475da668ddb523523351bd8349b65803c07f97e7a90600090a25050565b6103536104b5565b6001600160a01b0316610364610285565b6001600160a01b0316146103ad576040805162461bcd60e51b8152602060048201819052602482015260008051602061092d833981519152604482015290519081900360640190fd5b6001600160a01b0381166103f25760405162461bcd60e51b81526004018080602001828103825260268152602001806109076026913960400191505060405180910390fd5b600080546040516001600160a01b03808516939216917f8be0079c531659141344cd1fd0a4f28419497f9722a3daafe3b4186f6b6457e091a3600080546001600160a01b0319166001600160a01b0392909216919091179055565b805415610490576040805162461bcd60e51b815260206004820152600c60248201526b105b1c9958591e481a5b9a5d60a21b604482015290519081900360640190fd5b60016000818152918101602052604090912080546001600160a01b0319169091179055565b3390565b6001600160a01b0381166001148015906104db57506001600160a01b03811615155b61051e576040805162461bcd60e51b815260206004820152600f60248201526e496e76616c6964206164647265737360881b604482015290519081900360640190fd5b6001600160a01b038181166000908152600184016020526040902054161561057d576040805162461bcd60e51b815260206004820152600d60248201526c105b1c9958591e481859191959609a1b604482015290519081900360640190fd5b60016000818152838201602052604080822080546001600160a01b039586168085529284208054969091166001600160a01b03199687161790559183905281549093169092179091558154019055565b60606000826000015467ffffffffffffffff811180156105ec57600080fd5b50604051908082528060200260200182016040528015610616578160200160208202803683370190505b50600160008181529085016020526040812054919250906001600160a01b03165b6001600160a01b0381161580159061065957506001600160a01b038116600114155b156106a5578083838151811061066b57fe5b6001600160a01b03928316602091820292909201810191909152918116600090815260018088019093526040902054929091019116610637565b50909150505b919050565b6001600160a01b0381166001148015906106d257506001600160a01b03811615155b610715576040805162461bcd60e51b815260206004820152600f60248201526e496e76616c6964206164647265737360881b604482015290519081900360640190fd5b6001600160a01b03828116600090815260018501602052604090205481169082161461077e576040805162461bcd60e51b8152602060048201526013602482015272496e76616c696420707265764164647265737360681b604482015290519081900360640190fd5b6001600160a01b039081166000818152600185016020526040808220805495851683529082208054959094166001600160a01b03199586161790935552805490911690558054600019019055565b80356001600160a01b03811681146106ab57600080fd5b6000602082840312156107f4578081fd5b6107fd826107cc565b9392505050565b60008060408385031215610816578081fd5b61081f836107cc565b915061082d602084016107cc565b90509250929050565b60008060208385031215610848578182fd5b823567ffffffffffffffff8082111561085f578384fd5b818501915085601f830112610872578384fd5b813581811115610880578485fd5b8660208083028501011115610893578485fd5b60209290920196919550909350505050565b6001600160a01b0391909116815260200190565b6020808252825182820181905260009190848201906040850190845b818110156108fa5783516001600160a01b0316835292840192918401916001016108d5565b5090969550505050505056fe4f776e61626c653a206e6577206f776e657220697320746865207a65726f20616464726573734f776e61626c653a2063616c6c6572206973206e6f7420746865206f776e6572a26469706673582212207902778e0c717c074cd279f194354cede403e54114397daa25feff8a9f5f9a2f64736f6c63430007060033",
  "devdoc": {
    "kind": "dev",
    "methods": {
      "addPrizePools(address[])": {
        "params": {
          "_prizePools": "Array of prizePool addresses"
        }
      },
      "getPrizePools()": {
        "returns": {
          "_0": "Array of prize pool addresses"
        }
      },
      "owner()": {
        "details": "Returns the address of the current owner."
      },
      "removePrizePool(address,address)": {
        "params": {
          "_previousPrizePool": "The address positionally localed before the address that will be deleted. This may be the SENTINEL address if the list contains one prize pool address",
          "_prizePool": "The address to remove from the linked list. "
        }
      },
      "renounceOwnership()": {
        "details": "Leaves the contract without owner. It will not be possible to call `onlyOwner` functions anymore. Can only be called by the current owner. NOTE: Renouncing ownership will leave the contract without an owner, thereby removing any functionality that is only available to the owner."
      },
      "transferOwnership(address)": {
        "details": "Transfers ownership of the contract to a new account (`newOwner`). Can only be called by the current owner."
      }
    },
    "version": 1
  },
  "userdoc": {
    "kind": "user",
    "methods": {
      "addPrizePools(address[])": {
        "notice": "Adds addresses to the linked list. Will revert if the address is already in the list.  Can only be called by the Registry owner."
      },
      "getPrizePools()": {
        "notice": "Returns an array of all prizePools in the linked list"
      },
      "removePrizePool(address,address)": {
        "notice": "Removes an address from the linked list. Can only be called by the Registry owner."
      }
    },
    "notice": "A registry to hold Prize Pool addresses.  Underlying data structure is a singly linked list. ",
    "version": 1
  },
  "storageLayout": {
    "storage": [
      {
        "astId": 7,
        "contract": "contracts/PrizePoolRegistry.sol:PrizePoolRegistry",
        "label": "_owner",
        "offset": 0,
        "slot": "0",
        "type": "t_address"
      },
      {
        "astId": 156,
        "contract": "contracts/PrizePoolRegistry.sol:PrizePoolRegistry",
        "label": "prizePoolList",
        "offset": 0,
        "slot": "1",
        "type": "t_struct(Mapping)606_storage"
      }
    ],
    "types": {
      "t_address": {
        "encoding": "inplace",
        "label": "address",
        "numberOfBytes": "20"
      },
      "t_mapping(t_address,t_address)": {
        "encoding": "mapping",
        "key": "t_address",
        "label": "mapping(address => address)",
        "numberOfBytes": "32",
        "value": "t_address"
      },
      "t_struct(Mapping)606_storage": {
        "encoding": "inplace",
        "label": "struct MappedSinglyLinkedList.Mapping",
        "members": [
          {
            "astId": 601,
            "contract": "contracts/PrizePoolRegistry.sol:PrizePoolRegistry",
            "label": "count",
            "offset": 0,
            "slot": "0",
            "type": "t_uint256"
          },
          {
            "astId": 605,
            "contract": "contracts/PrizePoolRegistry.sol:PrizePoolRegistry",
            "label": "addressMap",
            "offset": 0,
            "slot": "1",
            "type": "t_mapping(t_address,t_address)"
          }
        ],
        "numberOfBytes": "64"
      },
      "t_uint256": {
        "encoding": "inplace",
        "label": "uint256",
        "numberOfBytes": "32"
      }
    }
  }
}