{
  "address": "0xb853503F62779ac16068A8fc40B84Ee174b50337",
  "abi": [
    {
      "inputs": [
        {
          "internalType": "address",
          "name": "_prizePoolRegistry",
          "type": "address"
        },
        {
          "internalType": "uint256",
          "name": "_upkeepBatchSize",
          "type": "uint256"
        }
      ],
      "stateMutability": "nonpayable",
      "type": "constructor"
    },
    {
      "inputs": [
        {
          "internalType": "bytes",
          "name": "checkData",
          "type": "bytes"
        }
      ],
      "name": "checkUpkeep",
      "outputs": [
        {
          "internalType": "bool",
          "name": "upkeepNeeded",
          "type": "bool"
        },
        {
          "internalType": "bytes",
          "name": "performData",
          "type": "bytes"
        }
      ],
      "stateMutability": "view",
      "type": "function"
    },
    {
      "inputs": [
        {
          "internalType": "bytes",
          "name": "performData",
          "type": "bytes"
        }
      ],
      "name": "performUpkeep",
      "outputs": [],
      "stateMutability": "nonpayable",
      "type": "function"
    },
    {
      "inputs": [],
      "name": "prizePoolRegistry",
      "outputs": [
        {
          "internalType": "address",
          "name": "",
          "type": "address"
        }
      ],
      "stateMutability": "view",
      "type": "function"
    },
    {
      "inputs": [],
      "name": "upkeepBatchSize",
      "outputs": [
        {
          "internalType": "uint256",
          "name": "",
          "type": "uint256"
        }
      ],
      "stateMutability": "view",
      "type": "function"
    }
  ],
  "transactionHash": "0x97dc1506a4f7fc63e43076024f2629115d5ab599ef8837d0ee3aa164b91198ed",
  "args": [
    "0x8817bB292941e1A69F12879B274c8A15D315ABb1",
    5
  ],
  "solcInputHash": "20d3358fd77b25249d09dbdeb2d71edd",
  "bytecode": "0x608060405234801561001057600080fd5b50604051610a0a380380610a0a83398101604081905261002f91610058565b600080546001600160a01b0319166001600160a01b039390931692909217909155600155610090565b6000806040838503121561006a578182fd5b82516001600160a01b0381168114610080578283fd5b6020939093015192949293505050565b61096b8061009f6000396000f3fe608060405234801561001057600080fd5b506004361061004c5760003560e01c80632dc41821146100515780634585e33b1461006f5780636e04ff0d14610084578063ad06337f146100a5575b600080fd5b6100596100ba565b60405161006691906108fc565b60405180910390f35b61008261007d3660046107fd565b6100c0565b005b6100976100923660046107fd565b6102ea565b6040516100669291906108c6565b6100ad61050a565b60405161006691906108b2565b60015481565b60008060009054906101000a90046001600160a01b03166001600160a01b031663a28e62196040518163ffffffff1660e01b815260040160006040518083038186803b15801561010f57600080fd5b505afa158015610123573d6000803e3d6000fd5b505050506040513d6000823e601f3d908101601f1916820160405261014b9190810190610728565b60015490915060005b6000821180156101645750825181105b156102e357600083828151811061017757fe5b60200260200101516001600160a01b03166398bf3eb66040518163ffffffff1660e01b815260040160206040518083038186803b1580156101b757600080fd5b505afa1580156101cb573d6000803e3d6000fd5b505050506040513d601f19601f820116820180604052508101906101ef9190610707565b9050610203816001600160a01b0316610519565b1561026857806001600160a01b031663b9ee1e056040518163ffffffff1660e01b8152600401600060405180830381600087803b15801561024357600080fd5b505af1158015610257573d6000803e3d6000fd5b505060001990940193506102da9050565b61027a816001600160a01b03166105b2565b156102da57806001600160a01b031663dfb2f13b6040518163ffffffff1660e01b8152600401600060405180830381600087803b1580156102ba57600080fd5b505af11580156102ce573d6000803e3d6000fd5b50506000199094019350505b50600101610154565b5050505050565b6000606060008060009054906101000a90046001600160a01b03166001600160a01b031663a28e62196040518163ffffffff1660e01b815260040160006040518083038186803b15801561033d57600080fd5b505afa158015610351573d6000803e3d6000fd5b505050506040513d6000823e601f3d908101601f191682016040526103799190810190610728565b905060005b815181101561043b57600082828151811061039557fe5b60200260200101516001600160a01b03166398bf3eb66040518163ffffffff1660e01b815260040160206040518083038186803b1580156103d557600080fd5b505afa1580156103e9573d6000803e3d6000fd5b505050506040513d601f19601f8201168201806040525081019061040d9190610707565b9050610421816001600160a01b0316610519565b156104325760019450505050610503565b5060010161037e565b5060005b81518110156104fc57600082828151811061045657fe5b60200260200101516001600160a01b03166398bf3eb66040518163ffffffff1660e01b815260040160206040518083038186803b15801561049657600080fd5b505afa1580156104aa573d6000803e3d6000fd5b505050506040513d601f19601f820116820180604052508101906104ce9190610707565b90506104e2816001600160a01b03166105b2565b156104f35760019450505050610503565b5060010161043f565b5060009250505b9250929050565b6000546001600160a01b031681565b600061052c826343b7ae3f60e11b610603565b156105a957816001600160a01b031663876f5c7e6040518163ffffffff1660e01b815260040160206040518083038186803b15801561056a57600080fd5b505afa15801561057e573d6000803e3d6000fd5b505050506040513d601f19601f820116820180604052508101906105a291906107dd565b90506105ad565b5060005b919050565b60006105c582636a74f10760e01b610603565b156105a957816001600160a01b0316636a74f1076040518163ffffffff1660e01b815260040160206040518083038186803b15801561056a57600080fd5b60408051600481526024810182526020810180516001600160e01b03166001600160e01b03198516179052905160009190829081906001600160a01b0387169061753090610652908690610896565b6000604051808303818686fa925050503d806000811461068e576040519150601f19603f3d011682016040523d82523d6000602084013e610693565b606091505b50915091506020815110156106ae57600093505050506106ea565b811580156106bd575060008151115b156106e5578060405162461bcd60e51b81526004016106dc91906108e9565b60405180910390fd5b509150505b92915050565b80516001600160a01b03811681146105ad57600080fd5b600060208284031215610718578081fd5b610721826106f0565b9392505050565b6000602080838503121561073a578182fd5b825167ffffffffffffffff80821115610751578384fd5b818501915085601f830112610764578384fd5b81518181111561077057fe5b8381026040518582820101818110858211171561078957fe5b604052828152858101935084860182860187018a10156107a7578788fd5b8795505b838610156107d0576107bc816106f0565b8552600195909501949386019386016107ab565b5098975050505050505050565b6000602082840312156107ee578081fd5b81518015158114610721578182fd5b6000806020838503121561080f578081fd5b823567ffffffffffffffff80821115610826578283fd5b818501915085601f830112610839578283fd5b813581811115610847578384fd5b866020828501011115610858578384fd5b60209290920196919550909350505050565b60008151808452610882816020860160208601610905565b601f01601f19169290920160200192915050565b600082516108a8818460208701610905565b9190910192915050565b6001600160a01b0391909116815260200190565b60008315158252604060208301526108e1604083018461086a565b949350505050565b600060208252610721602083018461086a565b90815260200190565b60005b83811015610920578181015183820152602001610908565b8381111561092f576000848401525b5050505056fea2646970667358221220284a45238fc96aca0313f43e0dfaeb7fed8259a5e229b35ba6d07c17c26e8d2564736f6c63430007060033",
  "devdoc": {
    "kind": "dev",
    "methods": {
      "checkUpkeep(bytes)": {
        "params": {
          "checkData": "Not used in this implementation."
        },
        "returns": {
          "upkeepNeeded": "as true if performUpkeep() needs to be called, false otherwise. performData returned empty. "
        }
      },
      "performUpkeep(bytes)": {
        "params": {
          "performData": "Not used in this implementation."
        }
      }
    },
    "version": 1
  },
  "userdoc": {
    "kind": "user",
    "methods": {
      "checkUpkeep(bytes)": {
        "notice": "Checks if PrizePools require upkeep. Call in a static manner every block by the Chainlink Upkeep network."
      },
      "performUpkeep(bytes)": {
        "notice": "Performs upkeep on the prize pools. "
      }
    },
    "notice": "Contract implements Chainlink's Upkeep system interface, automating the upkeep of PrizePools in the associated registry. ",
    "version": 1
  },
  "storageLayout": {
    "storage": [
      {
        "astId": 255,
        "contract": "contracts/PrizeStrategyUpkeep.sol:PrizeStrategyUpkeep",
        "label": "prizePoolRegistry",
        "offset": 0,
        "slot": "0",
        "type": "t_address"
      },
      {
        "astId": 257,
        "contract": "contracts/PrizeStrategyUpkeep.sol:PrizeStrategyUpkeep",
        "label": "upkeepBatchSize",
        "offset": 0,
        "slot": "1",
        "type": "t_uint256"
      }
    ],
    "types": {
      "t_address": {
        "encoding": "inplace",
        "label": "address",
        "numberOfBytes": "20"
      },
      "t_uint256": {
        "encoding": "inplace",
        "label": "uint256",
        "numberOfBytes": "32"
      }
    }
  }
}